{"contracts/MemoryRegistry.sol":{"MemoryRegistry":{"abi":[{"inputs":[],"stateMutability":"nonpayable","type":"constructor"},{"inputs":[{"internalType":"address","name":"owner","type":"address"}],"name":"OwnableInvalidOwner","type":"error"},{"inputs":[{"internalType":"address","name":"account","type":"address"}],"name":"OwnableUnauthorizedAccount","type":"error"},{"inputs":[],"name":"ReentrancyGuardReentrantCall","type":"error"},{"anonymous":false,"inputs":[{"indexed":true,"internalType":"bytes32","name":"hash","type":"bytes32"},{"indexed":true,"internalType":"address","name":"agent","type":"address"},{"indexed":false,"internalType":"string","name":"metadata","type":"string"},{"indexed":false,"internalType":"string","name":"zgStorageId","type":"string"},{"indexed":false,"internalType":"string","name":"contentType","type":"string"},{"indexed":false,"internalType":"uint256","name":"timestamp","type":"uint256"}],"name":"MemoryHashCommitted","type":"event"},{"anonymous":false,"inputs":[{"indexed":true,"internalType":"bytes32","name":"hash","type":"bytes32"},{"indexed":true,"internalType":"address","name":"agent","type":"address"},{"indexed":false,"internalType":"uint256","name":"timestamp","type":"uint256"}],"name":"MemoryHashRevoked","type":"event"},{"anonymous":false,"inputs":[{"indexed":true,"internalType":"bytes32","name":"hash","type":"bytes32"},{"indexed":true,"internalType":"address","name":"verifier","type":"address"},{"indexed":false,"internalType":"uint256","name":"timestamp","type":"uint256"}],"name":"MemoryHashVerified","type":"event"},{"anonymous":false,"inputs":[{"indexed":true,"internalType":"bytes32","name":"hash","type":"bytes32"},{"indexed":false,"internalType":"string","name":"zgStorageId","type":"string"},{"indexed":false,"internalType":"uint256","name":"timestamp","type":"uint256"}],"name":"MemoryIndexUpdated","type":"event"},{"anonymous":false,"inputs":[{"indexed":true,"internalType":"bytes32","name":"hash","type":"bytes32"},{"indexed":false,"internalType":"string[]","name":"tags","type":"string[]"},{"indexed":false,"internalType":"uint256","name":"timestamp","type":"uint256"}],"name":"MemoryTagged","type":"event"},{"anonymous":false,"inputs":[{"indexed":true,"internalType":"address","name":"previousOwner","type":"address"},{"indexed":true,"internalType":"address","name":"newOwner","type":"address"}],"name":"OwnershipTransferred","type":"event"},{"inputs":[{"internalType":"address","name":"","type":"address"},{"internalType":"uint256","name":"","type":"uint256"}],"name":"agentMemories","outputs":[{"internalType":"bytes32","name":"","type":"bytes32"}],"stateMutability":"view","type":"function"},{"inputs":[{"internalType":"uint256","name":"","type":"uint256"}],"name":"allMemoryHashes","outputs":[{"internalType":"bytes32","name":"","type":"bytes32"}],"stateMutability":"view","type":"function"},{"inputs":[{"internalType":"uint256","name":"","type":"uint256"}],"name":"allTags","outputs":[{"internalType":"string","name":"","type":"string"}],"stateMutability":"view","type":"function"},{"inputs":[{"internalType":"bytes32[]","name":"hashes","type":"bytes32[]"},{"internalType":"string[]","name":"metadatas","type":"string[]"},{"internalType":"string[]","name":"zgStorageIds","type":"string[]"},{"internalType":"string[]","name":"contentTypes","type":"string[]"},{"internalType":"uint256[]","name":"sizes","type":"uint256[]"},{"internalType":"string[][]","name":"allTags","type":"string[][]"}],"name":"batchCommitMemoryHashes","outputs":[],"stateMutability":"nonpayable","type":"function"},{"inputs":[{"internalType":"bytes32","name":"hash","type":"bytes32"},{"internalType":"string","name":"metadata","type":"string"},{"internalType":"string","name":"zgStorageId","type":"string"},{"internalType":"string","name":"contentType","type":"string"},{"internalType":"uint256","name":"size","type":"uint256"},{"internalType":"string[]","name":"tags","type":"string[]"}],"name":"commitMemoryHash","outputs":[{"internalType":"bytes32","name":"","type":"bytes32"}],"stateMutability":"nonpayable","type":"function"},{"inputs":[{"internalType":"string","name":"","type":"string"}],"name":"contentTypeCount","outputs":[{"internalType":"uint256","name":"","type":"uint256"}],"stateMutability":"view","type":"function"},{"inputs":[{"internalType":"address","name":"agent","type":"address"}],"name":"getAgentMemories","outputs":[{"internalType":"bytes32[]","name":"","type":"bytes32[]"}],"stateMutability":"view","type":"function"},{"inputs":[],"name":"getAllTags","outputs":[{"internalType":"string[]","name":"","type":"string[]"}],"stateMutability":"view","type":"function"},{"inputs":[{"internalType":"bytes32","name":"hash","type":"bytes32"}],"name":"getMemoryHash","outputs":[{"components":[{"internalType":"bytes32","name":"hash","type":"bytes32"},{"internalType":"string","name":"metadata","type":"string"},{"internalType":"address","name":"agent","type":"address"},{"internalType":"uint256","name":"timestamp","type":"uint256"},{"internalType":"bool","name":"isActive","type":"bool"},{"internalType":"string","name":"zgStorageId","type":"string"},{"internalType":"string","name":"contentType","type":"string"},{"internalType":"uint256","name":"size","type":"uint256"},{"internalType":"string[]","name":"tags","type":"string[]"}],"internalType":"struct MemoryRegistry.MemoryHash","name":"","type":"tuple"}],"stateMutability":"view","type":"function"},{"inputs":[{"internalType":"uint256","name":"index","type":"uint256"}],"name":"getMemoryHashByIndex","outputs":[{"internalType":"bytes32","name":"","type":"bytes32"}],"stateMutability":"view","type":"function"},{"inputs":[{"internalType":"string","name":"zgStorageId","type":"string"}],"name":"getMemoryHashByZGStorageId","outputs":[{"internalType":"bytes32","name":"","type":"bytes32"}],"stateMutability":"view","type":"function"},{"inputs":[{"internalType":"string","name":"contentType","type":"string"}],"name":"getMemoryHashesByContentType","outputs":[{"internalType":"bytes32[]","name":"","type":"bytes32[]"}],"stateMutability":"view","type":"function"},{"inputs":[{"internalType":"string","name":"tag","type":"string"}],"name":"getMemoryHashesByTag","outputs":[{"internalType":"bytes32[]","name":"","type":"bytes32[]"}],"stateMutability":"view","type":"function"},{"inputs":[],"name":"getMemoryStats","outputs":[{"internalType":"uint256","name":"totalMemories","type":"uint256"},{"internalType":"uint256","name":"activeMemories","type":"uint256"},{"internalType":"uint256","name":"verifiedMemories","type":"uint256"},{"internalType":"uint256","name":"totalTags","type":"uint256"},{"internalType":"uint256","name":"totalSize","type":"uint256"}],"stateMutability":"view","type":"function"},{"inputs":[],"name":"getTotalMemoryHashes","outputs":[{"internalType":"uint256","name":"","type":"uint256"}],"stateMutability":"view","type":"function"},{"inputs":[{"internalType":"bytes32","name":"hash","type":"bytes32"}],"name":"isMemoryHashVerified","outputs":[{"internalType":"bool","name":"","type":"bool"}],"stateMutability":"view","type":"function"},{"inputs":[{"internalType":"bytes32","name":"","type":"bytes32"}],"name":"memoryHashes","outputs":[{"internalType":"bytes32","name":"hash","type":"bytes32"},{"internalType":"string","name":"metadata","type":"string"},{"internalType":"address","name":"agent","type":"address"},{"internalType":"uint256","name":"timestamp","type":"uint256"},{"internalType":"bool","name":"isActive","type":"bool"},{"internalType":"string","name":"zgStorageId","type":"string"},{"internalType":"string","name":"contentType","type":"string"},{"internalType":"uint256","name":"size","type":"uint256"}],"stateMutability":"view","type":"function"},{"inputs":[],"name":"owner","outputs":[{"internalType":"address","name":"","type":"address"}],"stateMutability":"view","type":"function"},{"inputs":[],"name":"renounceOwnership","outputs":[],"stateMutability":"nonpayable","type":"function"},{"inputs":[{"internalType":"bytes32","name":"hash","type":"bytes32"}],"name":"revokeMemoryHash","outputs":[],"stateMutability":"nonpayable","type":"function"},{"inputs":[{"internalType":"string","name":"","type":"string"},{"internalType":"uint256","name":"","type":"uint256"}],"name":"tagToHashes","outputs":[{"internalType":"bytes32","name":"","type":"bytes32"}],"stateMutability":"view","type":"function"},{"inputs":[{"internalType":"address","name":"newOwner","type":"address"}],"name":"transferOwnership","outputs":[],"stateMutability":"nonpayable","type":"function"},{"inputs":[{"internalType":"bytes32","name":"hash","type":"bytes32"},{"internalType":"string","name":"newZgStorageId","type":"string"}],"name":"updateZGStorageId","outputs":[],"stateMutability":"nonpayable","type":"function"},{"inputs":[{"internalType":"bytes32","name":"","type":"bytes32"}],"name":"verifiedHashes","outputs":[{"internalType":"bool","name":"","type":"bool"}],"stateMutability":"view","type":"function"},{"inputs":[{"internalType":"bytes32","name":"hash","type":"bytes32"}],"name":"verifyMemoryHash","outputs":[],"stateMutability":"nonpayable","type":"function"},{"inputs":[{"internalType":"string","name":"","type":"string"}],"name":"zgStorageToHash","outputs":[{"internalType":"bytes32","name":"","type":"bytes32"}],"stateMutability":"view","type":"function"}],"evm":{"bytecode":{"linkReferences":{},"object":"6080806040523461007e5733156100685760008054336001600160a01b03198216811783556040519290916001600160a01b0316907f8be0079c531659141344cd1fd0a4f28419497f9722a3daafe3b4186f6b6457e09080a36001805561249690816100848239f35b631e4fbdf760e01b815260006004820152602490fd5b600080fdfe608080604052600436101561001357600080fd5b60003560e01c908163077f9e1914611a1057508063142058221461198057806319abf3c714611957578063233e42ae1461188757806330babdd41461181c578063374146e214610cf95780633ea60080146115c2578063440bc4941461155e5780634b31f22c1461146d578063552338b3146113e95780635730e4c8146113905780637038f1571461129f578063715018a614611246578063732ac8cc14610dd35780637afb806514610d2a57806382482d4114610cf95780638da5cb5b14610cd057806391ff9a1c14610c7f578063a6ce4fc514610537578063aaecbb35146103fc578063d121bf0f146103b3578063efbc4e9614610395578063f2fde38b1461030c578063f7e38666146102b0578063f82e3dda146102375763fd098e1e1461013d57600080fd5b346102325760003660031901126102325760085460095460009190829081805b848110610184575060a0946040519485526020850152604084015260608301526080820152f35b61018d81611d15565b90549060031b1c8060005260029060209082825260ff9283600460406000200154166101ec575b509060049160005252604060002054166101d7575b6101d290612188565b61015d565b906101e46101d291612188565b9190506101c9565b986101fa9097929197612188565b98876000528152600760406000200154820180921161021c57909560046101b4565b634e487b7160e01b600052601160045260246000fd5b600080fd5b34610232576040366003190112610232576004356001600160401b03811161023257610267903690600401611f34565b6102836020602435928160405193828580945193849201611c65565b810160068152030190208054821015610232576020916102a291611d83565b90546040519160031b1c8152f35b34610232576020366003190112610232576004356001600160401b038111610232576102f960206102e681933690600401611f34565b8160405193828580945193849201611c65565b8101600581520301902054604051908152f35b3461023257602036600319011261023257610325611ea8565b61032d611f52565b6001600160a01b0390811690811561037c57600054826001600160601b0360a01b821617600055167f8be0079c531659141344cd1fd0a4f28419497f9722a3daafe3b4186f6b6457e0600080a3005b604051631e4fbdf760e01b815260006004820152602490fd5b34610232576000366003190112610232576020600854604051908152f35b34610232576020366003190112610232576004356001600160401b038111610232576103e960206102e681933690600401611f34565b8101600781520301902054604051908152f35b3461023257602080600319360112610232576004356001600160401b0381116102325761042d903690600401611cad565b6040518183823783818381016007815203019020549161044c83611f7e565b9261045a6040519485611e87565b808452610469601f1991611f7e565b013685850137600090600092600854935b848110610493576040518061048f8882611cda565b0390f35b61049c81611d15565b90549060031b1c80600052600288526104c56104cc600660406000200160405192838092611dd5565b0382611e87565b8881519101206104dd368587611eee565b898151910120146104f8575b506104f390612188565b61047a565b8694919451821015610521578161051a91896104f39460051b8a010152612188565b93906104e9565b634e487b7160e01b600052603260045260246000fd5b346102325760c0366003190112610232576001600160401b0360043581811161023257610568903690600401611ebe565b9160243581811161023257610581903690600401611ebe565b9190926044358281116102325761059c903690600401611ebe565b606496919635848111610232576105b7903690600401611ebe565b608497919735868111610232576105d2903690600401611ebe565b98909660a43511610232576105ec3660a435600401611ebe565b9a9097898703610c4157858703610bfc57838703610bb7578a8703610b7a578b8703610b3e578615610b035760328711610acc5760005b87811061062c57005b61063781898b61238f565b3560005260026020528c6040600020541561065c575b5061065790612188565b610623565b9b87848d9e849e95948e898f8f848f8f9361067a838095819361238f565b359d61068592612197565b99610691929199612197565b9261069d929194612197565b9390946106ab818b8d61238f565b35966106b69261239f565b9690976040519b6106c68d611e6b565b8c5236906106d392611eee565b60208b01523360408b01524260608b015260808a016001905236906106f792611eee565b60a0890152369061070792611eee565b60c087015260e0860152369061071c92611f95565b61010084015261072d8c8a8c61238f565b356000526002602052604060002092805184556020810151600185019061075391612062565b60028401600160a01b600190036040830151166001600160601b0360a01b825416179055606081015160038501556080810151151560048501906107a2919060ff801983541691151516179055565b60a08101516107b49060058601612062565b60c08101516107c69060068601612062565b60e081015160078501556101000151918251600160401b8111610ab6578f938c8f928f978e936008820154836008840155808410610a3d575b5060206008910191016000526020600020906000905b838210610a2057505050508260209394959697506108759261086c923360005260038652610853604060002061084c85858561238f565b3590612166565b61086761086184848461238f565b35612129565b61238f565b35928b88612197565b919082604051938492833781016005815203019020558a6108998d8560009361239f565b905081101561091b57906108998d856109128f9796958f8f610901836108db88888f6108fc61090d9861084c856109089a60206108e18b6108db858b8b61239f565b90612197565b9190826040519384928337810160068152030190209361238f565b61239f565b3691611eee565b6123e3565b612188565b9394959661239f565b50919a8a7f52ad1e0d7998f18fd8973f9ba5cb497388c6cdcb581980cfce9d8589d3948d50610a04610657949f9e8f906109fd8f8f8f918f928f938f8f95816109f58f9b986109e48d6109dc816109d4819e82908f8f6109cd9184917f83607eb75a55050a03e80ae5461d2137edb1b40b3afe987401cb60e90039f7ce9f8f846109a791602093612197565b9190826040519384928337810160078152030190206109c68154612188565b905561238f565b359c612197565b9b9095612197565b969095612197565b90604051958695339a4295886121f9565b0390a361238f565b359461239f565b610a1560405192839242918461223c565b0390a290508c61064d565b6001602082610a3183945187612062565b01930191019091610815565b600883016000526020600020908482015b8183018110610a5e5750506107ff565b80610a6b60019254611d9b565b80610a78575b5001610a4e565b601f908181118414610a91575050600081555b38610a71565b610aad60009284845260208420920160051c8201858301612004565b81835555610a8b565b634e487b7160e01b600052604160045260246000fd5b60405162461bcd60e51b815260206004820152600f60248201526e426174636820746f6f206c6172676560881b6044820152606490fd5b60405162461bcd60e51b8152602060048201526013602482015272139bc81a185cda195cc81d1bc818dbdb5b5a5d606a1b6044820152606490fd5b60405162461bcd60e51b81526020600482015260146024820152730a8c2cee640d8cadccee8d040dad2e6dac2e8c6d60631b6044820152606490fd5b60405162461bcd60e51b81526020600482015260156024820152740a6d2f4cae640d8cadccee8d040dad2e6dac2e8c6d605b1b6044820152606490fd5b60405162461bcd60e51b815260206004820152601d60248201527f436f6e74656e74207479706573206c656e677468206d69736d617463680000006044820152606490fd5b60405162461bcd60e51b815260206004820152601e60248201527f5a472053746f7261676520494473206c656e677468206d69736d6174636800006044820152606490fd5b60405162461bcd60e51b8152602060048201526016602482015275082e4e4c2f2e640d8cadccee8d040dad2e6dac2e8c6d60531b6044820152606490fd5b34610232576020366003190112610232576004356001600160401b038111610232576020610cb281923690600401611cad565b91908260405193849283378101600581520301902054604051908152f35b34610232576000366003190112610232576000546040516001600160a01b039091168152602090f35b34610232576020366003190112610232576004356000526004602052602060ff604060002054166040519015158152f35b3461023257602036600319011261023257600435806000526002602052610d5b60ff600460406000200154166122ed565b806000526002602052610d7f60018060a01b03600260406000200154163314612339565b610d876122ca565b806000526002602052600460406000200160ff198154169055604051904282527fbe161f50dc26f188a4dbebd94be20156cb3c4827d2ed9e131a355ff32823677e60203393a360018055005b346102325760c0366003190112610232576001600160401b0360243581811161023257610e04903690600401611cad565b9060443583811161023257610e1d903690600401611cad565b9260643585811161023257610e36903690600401611cad565b9560a43590811161023257610e4f903690600401611ebe565b959094610e5a6122ca565b600435156112125760043560005260026020526040600020546111d757811561119957604051610e8981611e6b565b6004358152610e99368684611eee565b602082015233604082015242606082015260016080820152610ebc368488611eee565b60a0820190815288610f7e610ed2368d89611eee565b60c08501908152610f74610ef18c60e088019560843587523691611f95565b9461010087019586526004356000526002602052610f6a608060406000209880518a55610f25602082015160018c01612062565b60028a0160018060a01b036040830151166001600160601b0360a01b825416179055606081015160038b015501511515600489019060ff801983541691151516179055565b5160058701612062565b5160068501612062565b5160078301555190815191600160401b8311610ab6576008820154836008840155808410611120575b50602060089101910160005260206000206000915b8383106111035750505050336000526003602052610fe06004356040600020612166565b610feb600435612129565b60405182868237828101906005825260208160043593030190205560005b8781106110bd57506110aa94927f52ad1e0d7998f18fd8973f9ba5cb497388c6cdcb581980cfce9d8589d3948d509694926110957f83607eb75a55050a03e80ae5461d2137edb1b40b3afe987401cb60e90039f7ce938b60405181868237602081838101600781520301902061107f8154612188565b90556040519485943399600435994295886121f9565b0390a36040519182916004359542918461223c565b0390a26001805560206040516004358152f35b806110ed6110cf6110fe938b8b612197565b80604051928337810190600682526020816004359303019020612166565b61090d610908610901838c8c612197565b611009565b600160208261111483945186612062565b01920192019190610fbc565b600883016000526020600020908482015b8183018110611141575050610fa7565b8061114e60019254611d9b565b8061115b575b5001611131565b601f908181118414611174575050600081555b8f611154565b61119060009284845260208420920160051c8201858301612004565b8183555561116e565b60405162461bcd60e51b81526020600482015260166024820152750c11c814dd1bdc9859d9481251081c995c5d5a5c995960521b6044820152606490fd5b60405162461bcd60e51b81526020600482015260136024820152724861736820616c72656164792065786973747360681b6044820152606490fd5b60405162461bcd60e51b815260206004820152600c60248201526b092dcecc2d8d2c840d0c2e6d60a31b6044820152606490fd5b346102325760003660031901126102325761125f611f52565b600080546001600160a01b0319811682556001600160a01b03167f8be0079c531659141344cd1fd0a4f28419497f9722a3daafe3b4186f6b6457e08280a3005b34610232576000366003190112610232576009546112bc81611f7e565b906112ca6040519283611e87565b808252602090818301908160096000527f6e1540171b6c0c960b71a7020d9f60077f6af931a8bbf590da0223dacf75c7af6000915b8383106113665750505050604051918083019381845251809452604083019360408160051b85010192916000955b82871061133a5785850386f35b909192938280611356600193603f198a82030186528851611c88565b960192019601959291909261132d565b600186819260409998995161137f816104c58189611dd5565b8152019201920191909594956112ff565b34610232576040366003190112610232576113a9611ea8565b6001600160a01b0316600090815260036020526040902080546024359190821015610232576020916113da91611d83565b90549060031b1c604051908152f35b3461023257602080600319360112610232576001600160a01b0361140b611ea8565b1660005260038152604060002090604051908181845491828152019360005281600020916000905b8282106114565761048f8561144a81890382611e87565b60405191829182611cda565b835486529485019460019384019390910190611433565b3461023257602036600319011261023257600435600052600260205260406000208054604051916114ac836114a58160018501611dd5565b0384611e87565b61155460018060a01b036002830154169161154660038201549360ff600484015416604051906114ea826114e38160058901611dd5565b0383611e87565b600760405195611508876115018160068501611dd5565b0388611e87565b0154966115276040519a8b9a8b526101008060208d01528b0190611c88565b9360408a015260608901521515608088015286820360a0880152611c88565b9084820360c0860152611c88565b9060e08301520390f35b3461023257602036600319011261023257600435600854811015611587576102a2602091611d15565b60405162461bcd60e51b8152602060048201526013602482015272496e646578206f7574206f6620626f756e647360681b6044820152606490fd5b34610232576040366003190112610232576001600160401b03600435602435828111610232576115f6903690600401611cad565b8260005260206002815261161460ff600460406000200154166122ed565b836000526002815261163760018060a01b03600260406000200154163314612339565b61163f6122ca565b81156117e05783600052600281526104c5611667600560406000200160405192838092611dd5565b818151806117b7575b50505083600052600281526005604060002001948211610ab65761169e826116988754611d9b565b8761201b565b600094601f831160011461173357827f26e195fb36a9e7f1104eb490680eecc0d1cfab1970c26a47f527b076f2a14e699596600091611728575b508360011b906000198560031b1c19161790555b846040518385823782818581016005815203019020556117196040519384936040855260408501916121d8565b9042908301520390a260018055005b9050840135876116d8565b601f1983169581600052826000209060005b8881106117a05750847f26e195fb36a9e7f1104eb490680eecc0d1cfab1970c26a47f527b076f2a14e69979810611786575b5050600183811b0190556116ec565b850135600019600386901b60f8161c191690558680611777565b90918460018192858a013581550193019101611745565b600092816117cd84936040518096819501611c65565b8101600581520301902055858181611670565b6064906040519062461bcd60e51b825260048201526015602482015274125b9d985b1a59080c11c814dd1bdc9859d9481251605a1b6044820152fd5b34610232576020366003190112610232576004356009548110156102325761184390611d4c565b611871576104c561185d61048f9260405192838092611dd5565b604051918291602083526020830190611c88565b634e487b7160e01b600052600060045260246000fd5b34610232576020806003193601126102325760043580600052600282526118b860ff600460406000200154166122ed565b6118c06122ca565b80600052600282526040600020541561191c5780600052600482526040600020600160ff198254161790557f884dbc6cee9c8f554b4538d0257e260ee7330518c333079dd23af96fe728c59d604051924284523393a360018055005b60405162461bcd60e51b815260048101839052601360248201527212185cda08191bd95cc81b9bdd08195e1a5cdd606a1b6044820152606490fd5b3461023257602036600319011261023257600435600854811015610232576102a2602091611d15565b3461023257602080600319360112610232576004356001600160401b038111610232576119b282913690600401611cad565b91908260405193849283378101600681520301902090604051908181845491828152019360005281600020916000905b8282106119f95761048f8561144a81890382611e87565b8354865294850194600193840193909101906119e2565b346102325760203660031901126102325761010081611a30606093611e6b565b6000815282602082015260006040820152600083820152600060808201528260a08201528260c0820152600060e0820152015260043560005260026020526040600020600860405191611a8283611e6b565b80548352604051611a9a816104c58160018601611dd5565b602084015260028101546001600160a01b031660408085019190915260038201546060850152600482015460ff161515608085015251611ae1816104c58160058601611dd5565b60a0840152604051611afa816104c58160068601611dd5565b60c0840152600781015460e0840152018054611b1581611f7e565b91611b236040519384611e87565b818352602083019060005260206000206000915b838310611c4057858561010082015260405180916020825280516020830152611b7160208201516101206040850152610140840190611c88565b60018060a01b036040830151166060840152606082015160808401526080820151151560a0840152610100611bcf611bbb60a085015193601f1994858883030160c0890152611c88565b60c0850151848783030160e0880152611c88565b9260e0810151828601520151918184820301610120850152825190818152602081016020808460051b8401019501936000925b848410611c0f5787870388f35b91939581939597506020611c2e82600194868495030188528a51611c88565b98019401940191879695939491611c02565b600160208192604051611c57816104c58189611dd5565b815201920192019190611b37565b60005b838110611c785750506000910152565b8181015183820152602001611c68565b90602091611ca181518092818552858086019101611c65565b601f01601f1916010190565b9181601f84011215610232578235916001600160401b038311610232576020838186019501011161023257565b6020908160408183019282815285518094520193019160005b828110611d01575050505090565b835185529381019392810192600101611cf3565b6008548110156105215760086000527ff3f7a9fe364faab93b216da50a3214154f22a0a2b415b23a84c8169e8b636ee30190600090565b6009548110156105215760096000527f6e1540171b6c0c960b71a7020d9f60077f6af931a8bbf590da0223dacf75c7af0190600090565b80548210156105215760005260206000200190600090565b90600182811c92168015611dcb575b6020831014611db557565b634e487b7160e01b600052602260045260246000fd5b91607f1691611daa565b9060009291805491611de683611d9b565b918282526001938481169081600014611e485750600114611e08575b50505050565b90919394506000526020928360002092846000945b838610611e34575050505001019038808080611e02565b805485870183015294019385908201611e1d565b9294505050602093945060ff191683830152151560051b01019038808080611e02565b61012081019081106001600160401b03821117610ab657604052565b90601f801991011681019081106001600160401b03821117610ab657604052565b600435906001600160a01b038216820361023257565b9181601f84011215610232578235916001600160401b038311610232576020808501948460051b01011161023257565b9291926001600160401b038211610ab65760405191611f17601f8201601f191660200184611e87565b829481845281830111610232578281602093846000960137010152565b9080601f8301121561023257816020611f4f93359101611eee565b90565b6000546001600160a01b03163303611f6657565b60405163118cdaa760e01b8152336004820152602490fd5b6001600160401b038111610ab65760051b60200190565b92919092611fa284611f7e565b91611fb06040519384611e87565b829480845260208094019060051b8301928284116102325780915b848310611fda57505050505050565b82356001600160401b038111610232578691611ff98684938601611f34565b815201920191611fcb565b81811061200f575050565b60008155600101612004565b9190601f811161202a57505050565b612056926000526020600020906020601f840160051c83019310612058575b601f0160051c0190612004565b565b9091508190612049565b91909182516001600160401b038111610ab657612089816120838454611d9b565b8461201b565b602080601f83116001146120c55750819293946000926120ba575b50508160011b916000199060031b1c1916179055565b0151905038806120a4565b90601f198316958460005282600020926000905b888210612111575050836001959697106120f8575b505050811b019055565b015160001960f88460031b161c191690553880806120ee565b806001859682949686015181550195019301906120d9565b600854600160401b811015610ab65761214b8160016121629301600855611d15565b819391549060031b91821b91600019901b19161790565b9055565b805490600160401b821015610ab6578161214b91600161216294018155611d83565b600019811461021c5760010190565b91908110156105215760051b81013590601e19813603018212156102325701908135916001600160401b038311610232576020018236038113610232579190565b908060209392818452848401376000828201840152601f01601f1916010190565b97969591926122379461221b612229936060989660808d5260808d01916121d8565b918a830360208c01526121d8565b9187830360408901526121d8565b930152565b93929180604086016040875252606085019060608160051b87010191836000905b838210612271575050505060209150930152565b90919293605f198982030184528535601e1983360301811215610232578201803560208092016001600160401b0382116102325781360381136102325760019383926122bc926121d8565b97019695940192019061225d565b6002600154146122db576002600155565b604051633ee5aeb560e01b8152600490fd5b156122f457565b60405162461bcd60e51b815260206004820152601960248201527f4d656d6f72792068617368206973206e6f7420616374697665000000000000006044820152606490fd5b1561234057565b60405162461bcd60e51b815260206004820152602160248201527f4e6f7420746865206f776e6572206f662074686973206d656d6f7279206861736044820152600d60fb1b6064820152608490fd5b91908110156105215760051b0190565b91908110156105215760051b81013590601e19813603018212156102325701908135916001600160401b038311610232576020018260051b36038113610232579190565b60095460005b81811061241d5750600160401b811015610ab65780600161240d9201600955611d4c565b9190916118715761205691612062565b6104c561243961242c83611d4c565b5060405192838092611dd5565b8051602080920120908451908501201461245b5761245690612188565b6123e9565b50505056fea264697066735822122081bec745936431b480a9fb5fa6b454e90dab397d75788cf01bfb9e4e71b3fe3e64736f6c63430008140033","opcodes":"PUSH1 0x80 DUP1 PUSH1 0x40 MSTORE CALLVALUE PUSH2 0x7E JUMPI CALLER ISZERO PUSH2 0x68 JUMPI PUSH1 0x0 DUP1 SLOAD CALLER PUSH1 0x1 PUSH1 0x1 PUSH1 0xA0 SHL SUB NOT DUP3 AND DUP2 OR DUP4 SSTORE PUSH1 0x40 MLOAD SWAP3 SWAP1 SWAP2 PUSH1 0x1 PUSH1 0x1 PUSH1 0xA0 SHL SUB AND SWAP1 PUSH32 0x8BE0079C531659141344CD1FD0A4F28419497F9722A3DAAFE3B4186F6B6457E0 SWAP1 DUP1 LOG3 PUSH1 0x1 DUP1 SSTORE PUSH2 0x2496 SWAP1 DUP2 PUSH2 0x84 DUP3 CODECOPY RETURN JUMPDEST PUSH4 0x1E4FBDF7 PUSH1 0xE0 SHL DUP2 MSTORE PUSH1 0x0 PUSH1 0x4 DUP3 ADD MSTORE PUSH1 0x24 SWAP1 REVERT JUMPDEST PUSH1 0x0 DUP1 REVERT INVALID PUSH1 0x80 DUP1 PUSH1 0x40 MSTORE PUSH1 0x4 CALLDATASIZE LT ISZERO PUSH2 0x13 JUMPI PUSH1 0x0 DUP1 REVERT JUMPDEST PUSH1 0x0 CALLDATALOAD PUSH1 0xE0 SHR SWAP1 DUP2 PUSH4 0x77F9E19 EQ PUSH2 0x1A10 JUMPI POP DUP1 PUSH4 0x14205822 EQ PUSH2 0x1980 JUMPI DUP1 PUSH4 0x19ABF3C7 EQ PUSH2 0x1957 JUMPI DUP1 PUSH4 0x233E42AE EQ PUSH2 0x1887 JUMPI DUP1 PUSH4 0x30BABDD4 EQ PUSH2 0x181C JUMPI DUP1 PUSH4 0x374146E2 EQ PUSH2 0xCF9 JUMPI DUP1 PUSH4 0x3EA60080 EQ PUSH2 0x15C2 JUMPI DUP1 PUSH4 0x440BC494 EQ PUSH2 0x155E JUMPI DUP1 PUSH4 0x4B31F22C EQ PUSH2 0x146D JUMPI DUP1 PUSH4 0x552338B3 EQ PUSH2 0x13E9 JUMPI DUP1 PUSH4 0x5730E4C8 EQ PUSH2 0x1390 JUMPI DUP1 PUSH4 0x7038F157 EQ PUSH2 0x129F JUMPI DUP1 PUSH4 0x715018A6 EQ PUSH2 0x1246 JUMPI DUP1 PUSH4 0x732AC8CC EQ PUSH2 0xDD3 JUMPI DUP1 PUSH4 0x7AFB8065 EQ PUSH2 0xD2A JUMPI DUP1 PUSH4 0x82482D41 EQ PUSH2 0xCF9 JUMPI DUP1 PUSH4 0x8DA5CB5B EQ PUSH2 0xCD0 JUMPI DUP1 PUSH4 0x91FF9A1C EQ PUSH2 0xC7F JUMPI DUP1 PUSH4 0xA6CE4FC5 EQ PUSH2 0x537 JUMPI DUP1 PUSH4 0xAAECBB35 EQ PUSH2 0x3FC JUMPI DUP1 PUSH4 0xD121BF0F EQ PUSH2 0x3B3 JUMPI DUP1 PUSH4 0xEFBC4E96 EQ PUSH2 0x395 JUMPI DUP1 PUSH4 0xF2FDE38B EQ PUSH2 0x30C JUMPI DUP1 PUSH4 0xF7E38666 EQ PUSH2 0x2B0 JUMPI DUP1 PUSH4 0xF82E3DDA EQ PUSH2 0x237 JUMPI PUSH4 0xFD098E1E EQ PUSH2 0x13D JUMPI PUSH1 0x0 DUP1 REVERT JUMPDEST CALLVALUE PUSH2 0x232 JUMPI PUSH1 0x0 CALLDATASIZE PUSH1 0x3 NOT ADD SLT PUSH2 0x232 JUMPI PUSH1 0x8 SLOAD PUSH1 0x9 SLOAD PUSH1 0x0 SWAP2 SWAP1 DUP3 SWAP1 DUP2 DUP1 JUMPDEST DUP5 DUP2 LT PUSH2 0x184 JUMPI POP PUSH1 0xA0 SWAP5 PUSH1 0x40 MLOAD SWAP5 DUP6 MSTORE PUSH1 0x20 DUP6 ADD MSTORE PUSH1 0x40 DUP5 ADD MSTORE PUSH1 0x60 DUP4 ADD MSTORE PUSH1 0x80 DUP3 ADD MSTORE RETURN JUMPDEST PUSH2 0x18D DUP2 PUSH2 0x1D15 JUMP JUMPDEST SWAP1 SLOAD SWAP1 PUSH1 0x3 SHL SHR DUP1 PUSH1 0x0 MSTORE PUSH1 0x2 SWAP1 PUSH1 0x20 SWAP1 DUP3 DUP3 MSTORE PUSH1 0xFF SWAP3 DUP4 PUSH1 0x4 PUSH1 0x40 PUSH1 0x0 KECCAK256 ADD SLOAD AND PUSH2 0x1EC JUMPI JUMPDEST POP SWAP1 PUSH1 0x4 SWAP2 PUSH1 0x0 MSTORE MSTORE PUSH1 0x40 PUSH1 0x0 KECCAK256 SLOAD AND PUSH2 0x1D7 JUMPI JUMPDEST PUSH2 0x1D2 SWAP1 PUSH2 0x2188 JUMP JUMPDEST PUSH2 0x15D JUMP JUMPDEST SWAP1 PUSH2 0x1E4 PUSH2 0x1D2 SWAP2 PUSH2 0x2188 JUMP JUMPDEST SWAP2 SWAP1 POP PUSH2 0x1C9 JUMP JUMPDEST SWAP9 PUSH2 0x1FA SWAP1 SWAP8 SWAP3 SWAP2 SWAP8 PUSH2 0x2188 JUMP JUMPDEST SWAP9 DUP8 PUSH1 0x0 MSTORE DUP2 MSTORE PUSH1 0x7 PUSH1 0x40 PUSH1 0x0 KECCAK256 ADD SLOAD DUP3 ADD DUP1 SWAP3 GT PUSH2 0x21C JUMPI SWAP1 SWAP6 PUSH1 0x4 PUSH2 0x1B4 JUMP JUMPDEST PUSH4 0x4E487B71 PUSH1 0xE0 SHL PUSH1 0x0 MSTORE PUSH1 0x11 PUSH1 0x4 MSTORE PUSH1 0x24 PUSH1 0x0 REVERT JUMPDEST PUSH1 0x0 DUP1 REVERT JUMPDEST CALLVALUE PUSH2 0x232 JUMPI PUSH1 0x40 CALLDATASIZE PUSH1 0x3 NOT ADD SLT PUSH2 0x232 JUMPI PUSH1 0x4 CALLDATALOAD PUSH1 0x1 PUSH1 0x1 PUSH1 0x40 SHL SUB DUP2 GT PUSH2 0x232 JUMPI PUSH2 0x267 SWAP1 CALLDATASIZE SWAP1 PUSH1 0x4 ADD PUSH2 0x1F34 JUMP JUMPDEST PUSH2 0x283 PUSH1 0x20 PUSH1 0x24 CALLDATALOAD SWAP3 DUP2 PUSH1 0x40 MLOAD SWAP4 DUP3 DUP6 DUP1 SWAP5 MLOAD SWAP4 DUP5 SWAP3 ADD PUSH2 0x1C65 JUMP JUMPDEST DUP2 ADD PUSH1 0x6 DUP2 MSTORE SUB ADD SWAP1 KECCAK256 DUP1 SLOAD DUP3 LT ISZERO PUSH2 0x232 JUMPI PUSH1 0x20 SWAP2 PUSH2 0x2A2 SWAP2 PUSH2 0x1D83 JUMP JUMPDEST SWAP1 SLOAD PUSH1 0x40 MLOAD SWAP2 PUSH1 0x3 SHL SHR DUP2 MSTORE RETURN JUMPDEST CALLVALUE PUSH2 0x232 JUMPI PUSH1 0x20 CALLDATASIZE PUSH1 0x3 NOT ADD SLT PUSH2 0x232 JUMPI PUSH1 0x4 CALLDATALOAD PUSH1 0x1 PUSH1 0x1 PUSH1 0x40 SHL SUB DUP2 GT PUSH2 0x232 JUMPI PUSH2 0x2F9 PUSH1 0x20 PUSH2 0x2E6 DUP2 SWAP4 CALLDATASIZE SWAP1 PUSH1 0x4 ADD PUSH2 0x1F34 JUMP JUMPDEST DUP2 PUSH1 0x40 MLOAD SWAP4 DUP3 DUP6 DUP1 SWAP5 MLOAD SWAP4 DUP5 SWAP3 ADD PUSH2 0x1C65 JUMP JUMPDEST DUP2 ADD PUSH1 0x5 DUP2 MSTORE SUB ADD SWAP1 KECCAK256 SLOAD PUSH1 0x40 MLOAD SWAP1 DUP2 MSTORE RETURN JUMPDEST CALLVALUE PUSH2 0x232 JUMPI PUSH1 0x20 CALLDATASIZE PUSH1 0x3 NOT ADD SLT PUSH2 0x232 JUMPI PUSH2 0x325 PUSH2 0x1EA8 JUMP JUMPDEST PUSH2 0x32D PUSH2 0x1F52 JUMP JUMPDEST PUSH1 0x1 PUSH1 0x1 PUSH1 0xA0 SHL SUB SWAP1 DUP2 AND SWAP1 DUP2 ISZERO PUSH2 0x37C JUMPI PUSH1 0x0 SLOAD DUP3 PUSH1 0x1 PUSH1 0x1 PUSH1 0x60 SHL SUB PUSH1 0xA0 SHL DUP3 AND OR PUSH1 0x0 SSTORE AND PUSH32 0x8BE0079C531659141344CD1FD0A4F28419497F9722A3DAAFE3B4186F6B6457E0 PUSH1 0x0 DUP1 LOG3 STOP JUMPDEST PUSH1 0x40 MLOAD PUSH4 0x1E4FBDF7 PUSH1 0xE0 SHL DUP2 MSTORE PUSH1 0x0 PUSH1 0x4 DUP3 ADD MSTORE PUSH1 0x24 SWAP1 REVERT JUMPDEST CALLVALUE PUSH2 0x232 JUMPI PUSH1 0x0 CALLDATASIZE PUSH1 0x3 NOT ADD SLT PUSH2 0x232 JUMPI PUSH1 0x20 PUSH1 0x8 SLOAD PUSH1 0x40 MLOAD SWAP1 DUP2 MSTORE RETURN JUMPDEST CALLVALUE PUSH2 0x232 JUMPI PUSH1 0x20 CALLDATASIZE PUSH1 0x3 NOT ADD SLT PUSH2 0x232 JUMPI PUSH1 0x4 CALLDATALOAD PUSH1 0x1 PUSH1 0x1 PUSH1 0x40 SHL SUB DUP2 GT PUSH2 0x232 JUMPI PUSH2 0x3E9 PUSH1 0x20 PUSH2 0x2E6 DUP2 SWAP4 CALLDATASIZE SWAP1 PUSH1 0x4 ADD PUSH2 0x1F34 JUMP JUMPDEST DUP2 ADD PUSH1 0x7 DUP2 MSTORE SUB ADD SWAP1 KECCAK256 SLOAD PUSH1 0x40 MLOAD SWAP1 DUP2 MSTORE RETURN JUMPDEST CALLVALUE PUSH2 0x232 JUMPI PUSH1 0x20 DUP1 PUSH1 0x3 NOT CALLDATASIZE ADD SLT PUSH2 0x232 JUMPI PUSH1 0x4 CALLDATALOAD PUSH1 0x1 PUSH1 0x1 PUSH1 0x40 SHL SUB DUP2 GT PUSH2 0x232 JUMPI PUSH2 0x42D SWAP1 CALLDATASIZE SWAP1 PUSH1 0x4 ADD PUSH2 0x1CAD JUMP JUMPDEST PUSH1 0x40 MLOAD DUP2 DUP4 DUP3 CALLDATACOPY DUP4 DUP2 DUP4 DUP2 ADD PUSH1 0x7 DUP2 MSTORE SUB ADD SWAP1 KECCAK256 SLOAD SWAP2 PUSH2 0x44C DUP4 PUSH2 0x1F7E JUMP JUMPDEST SWAP3 PUSH2 0x45A PUSH1 0x40 MLOAD SWAP5 DUP6 PUSH2 0x1E87 JUMP JUMPDEST DUP1 DUP5 MSTORE PUSH2 0x469 PUSH1 0x1F NOT SWAP2 PUSH2 0x1F7E JUMP JUMPDEST ADD CALLDATASIZE DUP6 DUP6 ADD CALLDATACOPY PUSH1 0x0 SWAP1 PUSH1 0x0 SWAP3 PUSH1 0x8 SLOAD SWAP4 JUMPDEST DUP5 DUP2 LT PUSH2 0x493 JUMPI PUSH1 0x40 MLOAD DUP1 PUSH2 0x48F DUP9 DUP3 PUSH2 0x1CDA JUMP JUMPDEST SUB SWAP1 RETURN JUMPDEST PUSH2 0x49C DUP2 PUSH2 0x1D15 JUMP JUMPDEST SWAP1 SLOAD SWAP1 PUSH1 0x3 SHL SHR DUP1 PUSH1 0x0 MSTORE PUSH1 0x2 DUP9 MSTORE PUSH2 0x4C5 PUSH2 0x4CC PUSH1 0x6 PUSH1 0x40 PUSH1 0x0 KECCAK256 ADD PUSH1 0x40 MLOAD SWAP3 DUP4 DUP1 SWAP3 PUSH2 0x1DD5 JUMP JUMPDEST SUB DUP3 PUSH2 0x1E87 JUMP JUMPDEST DUP9 DUP2 MLOAD SWAP2 ADD KECCAK256 PUSH2 0x4DD CALLDATASIZE DUP6 DUP8 PUSH2 0x1EEE JUMP JUMPDEST DUP10 DUP2 MLOAD SWAP2 ADD KECCAK256 EQ PUSH2 0x4F8 JUMPI JUMPDEST POP PUSH2 0x4F3 SWAP1 PUSH2 0x2188 JUMP JUMPDEST PUSH2 0x47A JUMP JUMPDEST DUP7 SWAP5 SWAP2 SWAP5 MLOAD DUP3 LT ISZERO PUSH2 0x521 JUMPI DUP2 PUSH2 0x51A SWAP2 DUP10 PUSH2 0x4F3 SWAP5 PUSH1 0x5 SHL DUP11 ADD ADD MSTORE PUSH2 0x2188 JUMP JUMPDEST SWAP4 SWAP1 PUSH2 0x4E9 JUMP JUMPDEST PUSH4 0x4E487B71 PUSH1 0xE0 SHL PUSH1 0x0 MSTORE PUSH1 0x32 PUSH1 0x4 MSTORE PUSH1 0x24 PUSH1 0x0 REVERT JUMPDEST CALLVALUE PUSH2 0x232 JUMPI PUSH1 0xC0 CALLDATASIZE PUSH1 0x3 NOT ADD SLT PUSH2 0x232 JUMPI PUSH1 0x1 PUSH1 0x1 PUSH1 0x40 SHL SUB PUSH1 0x4 CALLDATALOAD DUP2 DUP2 GT PUSH2 0x232 JUMPI PUSH2 0x568 SWAP1 CALLDATASIZE SWAP1 PUSH1 0x4 ADD PUSH2 0x1EBE JUMP JUMPDEST SWAP2 PUSH1 0x24 CALLDATALOAD DUP2 DUP2 GT PUSH2 0x232 JUMPI PUSH2 0x581 SWAP1 CALLDATASIZE SWAP1 PUSH1 0x4 ADD PUSH2 0x1EBE JUMP JUMPDEST SWAP2 SWAP1 SWAP3 PUSH1 0x44 CALLDATALOAD DUP3 DUP2 GT PUSH2 0x232 JUMPI PUSH2 0x59C SWAP1 CALLDATASIZE SWAP1 PUSH1 0x4 ADD PUSH2 0x1EBE JUMP JUMPDEST PUSH1 0x64 SWAP7 SWAP2 SWAP7 CALLDATALOAD DUP5 DUP2 GT PUSH2 0x232 JUMPI PUSH2 0x5B7 SWAP1 CALLDATASIZE SWAP1 PUSH1 0x4 ADD PUSH2 0x1EBE JUMP JUMPDEST PUSH1 0x84 SWAP8 SWAP2 SWAP8 CALLDATALOAD DUP7 DUP2 GT PUSH2 0x232 JUMPI PUSH2 0x5D2 SWAP1 CALLDATASIZE SWAP1 PUSH1 0x4 ADD PUSH2 0x1EBE JUMP JUMPDEST SWAP9 SWAP1 SWAP7 PUSH1 0xA4 CALLDATALOAD GT PUSH2 0x232 JUMPI PUSH2 0x5EC CALLDATASIZE PUSH1 0xA4 CALLDATALOAD PUSH1 0x4 ADD PUSH2 0x1EBE JUMP JUMPDEST SWAP11 SWAP1 SWAP8 DUP10 DUP8 SUB PUSH2 0xC41 JUMPI DUP6 DUP8 SUB PUSH2 0xBFC JUMPI DUP4 DUP8 SUB PUSH2 0xBB7 JUMPI DUP11 DUP8 SUB PUSH2 0xB7A JUMPI DUP12 DUP8 SUB PUSH2 0xB3E JUMPI DUP7 ISZERO PUSH2 0xB03 JUMPI PUSH1 0x32 DUP8 GT PUSH2 0xACC JUMPI PUSH1 0x0 JUMPDEST DUP8 DUP2 LT PUSH2 0x62C JUMPI STOP JUMPDEST PUSH2 0x637 DUP2 DUP10 DUP12 PUSH2 0x238F JUMP JUMPDEST CALLDATALOAD PUSH1 0x0 MSTORE PUSH1 0x2 PUSH1 0x20 MSTORE DUP13 PUSH1 0x40 PUSH1 0x0 KECCAK256 SLOAD ISZERO PUSH2 0x65C JUMPI JUMPDEST POP PUSH2 0x657 SWAP1 PUSH2 0x2188 JUMP JUMPDEST PUSH2 0x623 JUMP JUMPDEST SWAP12 DUP8 DUP5 DUP14 SWAP15 DUP5 SWAP15 SWAP6 SWAP5 DUP15 DUP10 DUP16 DUP16 DUP5 DUP16 DUP16 SWAP4 PUSH2 0x67A DUP4 DUP1 SWAP6 DUP2 SWAP4 PUSH2 0x238F JUMP JUMPDEST CALLDATALOAD SWAP14 PUSH2 0x685 SWAP3 PUSH2 0x2197 JUMP JUMPDEST SWAP10 PUSH2 0x691 SWAP3 SWAP2 SWAP10 PUSH2 0x2197 JUMP JUMPDEST SWAP3 PUSH2 0x69D SWAP3 SWAP2 SWAP5 PUSH2 0x2197 JUMP JUMPDEST SWAP4 SWAP1 SWAP5 PUSH2 0x6AB DUP2 DUP12 DUP14 PUSH2 0x238F JUMP JUMPDEST CALLDATALOAD SWAP7 PUSH2 0x6B6 SWAP3 PUSH2 0x239F JUMP JUMPDEST SWAP7 SWAP1 SWAP8 PUSH1 0x40 MLOAD SWAP12 PUSH2 0x6C6 DUP14 PUSH2 0x1E6B JUMP JUMPDEST DUP13 MSTORE CALLDATASIZE SWAP1 PUSH2 0x6D3 SWAP3 PUSH2 0x1EEE JUMP JUMPDEST PUSH1 0x20 DUP12 ADD MSTORE CALLER PUSH1 0x40 DUP12 ADD MSTORE TIMESTAMP PUSH1 0x60 DUP12 ADD MSTORE PUSH1 0x80 DUP11 ADD PUSH1 0x1 SWAP1 MSTORE CALLDATASIZE SWAP1 PUSH2 0x6F7 SWAP3 PUSH2 0x1EEE JUMP JUMPDEST PUSH1 0xA0 DUP10 ADD MSTORE CALLDATASIZE SWAP1 PUSH2 0x707 SWAP3 PUSH2 0x1EEE JUMP JUMPDEST PUSH1 0xC0 DUP8 ADD MSTORE PUSH1 0xE0 DUP7 ADD MSTORE CALLDATASIZE SWAP1 PUSH2 0x71C SWAP3 PUSH2 0x1F95 JUMP JUMPDEST PUSH2 0x100 DUP5 ADD MSTORE PUSH2 0x72D DUP13 DUP11 DUP13 PUSH2 0x238F JUMP JUMPDEST CALLDATALOAD PUSH1 0x0 MSTORE PUSH1 0x2 PUSH1 0x20 MSTORE PUSH1 0x40 PUSH1 0x0 KECCAK256 SWAP3 DUP1 MLOAD DUP5 SSTORE PUSH1 0x20 DUP2 ADD MLOAD PUSH1 0x1 DUP6 ADD SWAP1 PUSH2 0x753 SWAP2 PUSH2 0x2062 JUMP JUMPDEST PUSH1 0x2 DUP5 ADD PUSH1 0x1 PUSH1 0xA0 SHL PUSH1 0x1 SWAP1 SUB PUSH1 0x40 DUP4 ADD MLOAD AND PUSH1 0x1 PUSH1 0x1 PUSH1 0x60 SHL SUB PUSH1 0xA0 SHL DUP3 SLOAD AND OR SWAP1 SSTORE PUSH1 0x60 DUP2 ADD MLOAD PUSH1 0x3 DUP6 ADD SSTORE PUSH1 0x80 DUP2 ADD MLOAD ISZERO ISZERO PUSH1 0x4 DUP6 ADD SWAP1 PUSH2 0x7A2 SWAP2 SWAP1 PUSH1 0xFF DUP1 NOT DUP4 SLOAD AND SWAP2 ISZERO ISZERO AND OR SWAP1 SSTORE JUMP JUMPDEST PUSH1 0xA0 DUP2 ADD MLOAD PUSH2 0x7B4 SWAP1 PUSH1 0x5 DUP7 ADD PUSH2 0x2062 JUMP JUMPDEST PUSH1 0xC0 DUP2 ADD MLOAD PUSH2 0x7C6 SWAP1 PUSH1 0x6 DUP7 ADD PUSH2 0x2062 JUMP JUMPDEST PUSH1 0xE0 DUP2 ADD MLOAD PUSH1 0x7 DUP6 ADD SSTORE PUSH2 0x100 ADD MLOAD SWAP2 DUP3 MLOAD PUSH1 0x1 PUSH1 0x40 SHL DUP2 GT PUSH2 0xAB6 JUMPI DUP16 SWAP4 DUP13 DUP16 SWAP3 DUP16 SWAP8 DUP15 SWAP4 PUSH1 0x8 DUP3 ADD SLOAD DUP4 PUSH1 0x8 DUP5 ADD SSTORE DUP1 DUP5 LT PUSH2 0xA3D JUMPI JUMPDEST POP PUSH1 0x20 PUSH1 0x8 SWAP2 ADD SWAP2 ADD PUSH1 0x0 MSTORE PUSH1 0x20 PUSH1 0x0 KECCAK256 SWAP1 PUSH1 0x0 SWAP1 JUMPDEST DUP4 DUP3 LT PUSH2 0xA20 JUMPI POP POP POP POP DUP3 PUSH1 0x20 SWAP4 SWAP5 SWAP6 SWAP7 SWAP8 POP PUSH2 0x875 SWAP3 PUSH2 0x86C SWAP3 CALLER PUSH1 0x0 MSTORE PUSH1 0x3 DUP7 MSTORE PUSH2 0x853 PUSH1 0x40 PUSH1 0x0 KECCAK256 PUSH2 0x84C DUP6 DUP6 DUP6 PUSH2 0x238F JUMP JUMPDEST CALLDATALOAD SWAP1 PUSH2 0x2166 JUMP JUMPDEST PUSH2 0x867 PUSH2 0x861 DUP5 DUP5 DUP5 PUSH2 0x238F JUMP JUMPDEST CALLDATALOAD PUSH2 0x2129 JUMP JUMPDEST PUSH2 0x238F JUMP JUMPDEST CALLDATALOAD SWAP3 DUP12 DUP9 PUSH2 0x2197 JUMP JUMPDEST SWAP2 SWAP1 DUP3 PUSH1 0x40 MLOAD SWAP4 DUP5 SWAP3 DUP4 CALLDATACOPY DUP2 ADD PUSH1 0x5 DUP2 MSTORE SUB ADD SWAP1 KECCAK256 SSTORE DUP11 PUSH2 0x899 DUP14 DUP6 PUSH1 0x0 SWAP4 PUSH2 0x239F JUMP JUMPDEST SWAP1 POP DUP2 LT ISZERO PUSH2 0x91B JUMPI SWAP1 PUSH2 0x899 DUP14 DUP6 PUSH2 0x912 DUP16 SWAP8 SWAP7 SWAP6 DUP16 DUP16 PUSH2 0x901 DUP4 PUSH2 0x8DB DUP9 DUP9 DUP16 PUSH2 0x8FC PUSH2 0x90D SWAP9 PUSH2 0x84C DUP6 PUSH2 0x908 SWAP11 PUSH1 0x20 PUSH2 0x8E1 DUP12 PUSH2 0x8DB DUP6 DUP12 DUP12 PUSH2 0x239F JUMP JUMPDEST SWAP1 PUSH2 0x2197 JUMP JUMPDEST SWAP2 SWAP1 DUP3 PUSH1 0x40 MLOAD SWAP4 DUP5 SWAP3 DUP4 CALLDATACOPY DUP2 ADD PUSH1 0x6 DUP2 MSTORE SUB ADD SWAP1 KECCAK256 SWAP4 PUSH2 0x238F JUMP JUMPDEST PUSH2 0x239F JUMP JUMPDEST CALLDATASIZE SWAP2 PUSH2 0x1EEE JUMP JUMPDEST PUSH2 0x23E3 JUMP JUMPDEST PUSH2 0x2188 JUMP JUMPDEST SWAP4 SWAP5 SWAP6 SWAP7 PUSH2 0x239F JUMP JUMPDEST POP SWAP2 SWAP11 DUP11 PUSH32 0x52AD1E0D7998F18FD8973F9BA5CB497388C6CDCB581980CFCE9D8589D3948D50 PUSH2 0xA04 PUSH2 0x657 SWAP5 SWAP16 SWAP15 DUP16 SWAP1 PUSH2 0x9FD DUP16 DUP16 DUP16 SWAP2 DUP16 SWAP3 DUP16 SWAP4 DUP16 DUP16 SWAP6 DUP2 PUSH2 0x9F5 DUP16 SWAP12 SWAP9 PUSH2 0x9E4 DUP14 PUSH2 0x9DC DUP2 PUSH2 0x9D4 DUP2 SWAP15 DUP3 SWAP1 DUP16 DUP16 PUSH2 0x9CD SWAP2 DUP5 SWAP2 PUSH32 0x83607EB75A55050A03E80AE5461D2137EDB1B40B3AFE987401CB60E90039F7CE SWAP16 DUP16 DUP5 PUSH2 0x9A7 SWAP2 PUSH1 0x20 SWAP4 PUSH2 0x2197 JUMP JUMPDEST SWAP2 SWAP1 DUP3 PUSH1 0x40 MLOAD SWAP4 DUP5 SWAP3 DUP4 CALLDATACOPY DUP2 ADD PUSH1 0x7 DUP2 MSTORE SUB ADD SWAP1 KECCAK256 PUSH2 0x9C6 DUP2 SLOAD PUSH2 0x2188 JUMP JUMPDEST SWAP1 SSTORE PUSH2 0x238F JUMP JUMPDEST CALLDATALOAD SWAP13 PUSH2 0x2197 JUMP JUMPDEST SWAP12 SWAP1 SWAP6 PUSH2 0x2197 JUMP JUMPDEST SWAP7 SWAP1 SWAP6 PUSH2 0x2197 JUMP JUMPDEST SWAP1 PUSH1 0x40 MLOAD SWAP6 DUP7 SWAP6 CALLER SWAP11 TIMESTAMP SWAP6 DUP9 PUSH2 0x21F9 JUMP JUMPDEST SUB SWAP1 LOG3 PUSH2 0x238F JUMP JUMPDEST CALLDATALOAD SWAP5 PUSH2 0x239F JUMP JUMPDEST PUSH2 0xA15 PUSH1 0x40 MLOAD SWAP3 DUP4 SWAP3 TIMESTAMP SWAP2 DUP5 PUSH2 0x223C JUMP JUMPDEST SUB SWAP1 LOG2 SWAP1 POP DUP13 PUSH2 0x64D JUMP JUMPDEST PUSH1 0x1 PUSH1 0x20 DUP3 PUSH2 0xA31 DUP4 SWAP5 MLOAD DUP8 PUSH2 0x2062 JUMP JUMPDEST ADD SWAP4 ADD SWAP2 ADD SWAP1 SWAP2 PUSH2 0x815 JUMP JUMPDEST PUSH1 0x8 DUP4 ADD PUSH1 0x0 MSTORE PUSH1 0x20 PUSH1 0x0 KECCAK256 SWAP1 DUP5 DUP3 ADD JUMPDEST DUP2 DUP4 ADD DUP2 LT PUSH2 0xA5E JUMPI POP POP PUSH2 0x7FF JUMP JUMPDEST DUP1 PUSH2 0xA6B PUSH1 0x1 SWAP3 SLOAD PUSH2 0x1D9B JUMP JUMPDEST DUP1 PUSH2 0xA78 JUMPI JUMPDEST POP ADD PUSH2 0xA4E JUMP JUMPDEST PUSH1 0x1F SWAP1 DUP2 DUP2 GT DUP5 EQ PUSH2 0xA91 JUMPI POP POP PUSH1 0x0 DUP2 SSTORE JUMPDEST CODESIZE PUSH2 0xA71 JUMP JUMPDEST PUSH2 0xAAD PUSH1 0x0 SWAP3 DUP5 DUP5 MSTORE PUSH1 0x20 DUP5 KECCAK256 SWAP3 ADD PUSH1 0x5 SHR DUP3 ADD DUP6 DUP4 ADD PUSH2 0x2004 JUMP JUMPDEST DUP2 DUP4 SSTORE SSTORE PUSH2 0xA8B JUMP JUMPDEST PUSH4 0x4E487B71 PUSH1 0xE0 SHL PUSH1 0x0 MSTORE PUSH1 0x41 PUSH1 0x4 MSTORE PUSH1 0x24 PUSH1 0x0 REVERT JUMPDEST PUSH1 0x40 MLOAD PUSH3 0x461BCD PUSH1 0xE5 SHL DUP2 MSTORE PUSH1 0x20 PUSH1 0x4 DUP3 ADD MSTORE PUSH1 0xF PUSH1 0x24 DUP3 ADD MSTORE PUSH15 0x426174636820746F6F206C61726765 PUSH1 0x88 SHL PUSH1 0x44 DUP3 ADD MSTORE PUSH1 0x64 SWAP1 REVERT JUMPDEST PUSH1 0x40 MLOAD PUSH3 0x461BCD PUSH1 0xE5 SHL DUP2 MSTORE PUSH1 0x20 PUSH1 0x4 DUP3 ADD MSTORE PUSH1 0x13 PUSH1 0x24 DUP3 ADD MSTORE PUSH19 0x139BC81A185CDA195CC81D1BC818DBDB5B5A5D PUSH1 0x6A SHL PUSH1 0x44 DUP3 ADD MSTORE PUSH1 0x64 SWAP1 REVERT JUMPDEST PUSH1 0x40 MLOAD PUSH3 0x461BCD PUSH1 0xE5 SHL DUP2 MSTORE PUSH1 0x20 PUSH1 0x4 DUP3 ADD MSTORE PUSH1 0x14 PUSH1 0x24 DUP3 ADD MSTORE PUSH20 0xA8C2CEE640D8CADCCEE8D040DAD2E6DAC2E8C6D PUSH1 0x63 SHL PUSH1 0x44 DUP3 ADD MSTORE PUSH1 0x64 SWAP1 REVERT JUMPDEST PUSH1 0x40 MLOAD PUSH3 0x461BCD PUSH1 0xE5 SHL DUP2 MSTORE PUSH1 0x20 PUSH1 0x4 DUP3 ADD MSTORE PUSH1 0x15 PUSH1 0x24 DUP3 ADD MSTORE PUSH21 0xA6D2F4CAE640D8CADCCEE8D040DAD2E6DAC2E8C6D PUSH1 0x5B SHL PUSH1 0x44 DUP3 ADD MSTORE PUSH1 0x64 SWAP1 REVERT JUMPDEST PUSH1 0x40 MLOAD PUSH3 0x461BCD PUSH1 0xE5 SHL DUP2 MSTORE PUSH1 0x20 PUSH1 0x4 DUP3 ADD MSTORE PUSH1 0x1D PUSH1 0x24 DUP3 ADD MSTORE PUSH32 0x436F6E74656E74207479706573206C656E677468206D69736D61746368000000 PUSH1 0x44 DUP3 ADD MSTORE PUSH1 0x64 SWAP1 REVERT JUMPDEST PUSH1 0x40 MLOAD PUSH3 0x461BCD PUSH1 0xE5 SHL DUP2 MSTORE PUSH1 0x20 PUSH1 0x4 DUP3 ADD MSTORE PUSH1 0x1E PUSH1 0x24 DUP3 ADD MSTORE PUSH32 0x5A472053746F7261676520494473206C656E677468206D69736D617463680000 PUSH1 0x44 DUP3 ADD MSTORE PUSH1 0x64 SWAP1 REVERT JUMPDEST PUSH1 0x40 MLOAD PUSH3 0x461BCD PUSH1 0xE5 SHL DUP2 MSTORE PUSH1 0x20 PUSH1 0x4 DUP3 ADD MSTORE PUSH1 0x16 PUSH1 0x24 DUP3 ADD MSTORE PUSH22 0x82E4E4C2F2E640D8CADCCEE8D040DAD2E6DAC2E8C6D PUSH1 0x53 SHL PUSH1 0x44 DUP3 ADD MSTORE PUSH1 0x64 SWAP1 REVERT JUMPDEST CALLVALUE PUSH2 0x232 JUMPI PUSH1 0x20 CALLDATASIZE PUSH1 0x3 NOT ADD SLT PUSH2 0x232 JUMPI PUSH1 0x4 CALLDATALOAD PUSH1 0x1 PUSH1 0x1 PUSH1 0x40 SHL SUB DUP2 GT PUSH2 0x232 JUMPI PUSH1 0x20 PUSH2 0xCB2 DUP2 SWAP3 CALLDATASIZE SWAP1 PUSH1 0x4 ADD PUSH2 0x1CAD JUMP JUMPDEST SWAP2 SWAP1 DUP3 PUSH1 0x40 MLOAD SWAP4 DUP5 SWAP3 DUP4 CALLDATACOPY DUP2 ADD PUSH1 0x5 DUP2 MSTORE SUB ADD SWAP1 KECCAK256 SLOAD PUSH1 0x40 MLOAD SWAP1 DUP2 MSTORE RETURN JUMPDEST CALLVALUE PUSH2 0x232 JUMPI PUSH1 0x0 CALLDATASIZE PUSH1 0x3 NOT ADD SLT PUSH2 0x232 JUMPI PUSH1 0x0 SLOAD PUSH1 0x40 MLOAD PUSH1 0x1 PUSH1 0x1 PUSH1 0xA0 SHL SUB SWAP1 SWAP2 AND DUP2 MSTORE PUSH1 0x20 SWAP1 RETURN JUMPDEST CALLVALUE PUSH2 0x232 JUMPI PUSH1 0x20 CALLDATASIZE PUSH1 0x3 NOT ADD SLT PUSH2 0x232 JUMPI PUSH1 0x4 CALLDATALOAD PUSH1 0x0 MSTORE PUSH1 0x4 PUSH1 0x20 MSTORE PUSH1 0x20 PUSH1 0xFF PUSH1 0x40 PUSH1 0x0 KECCAK256 SLOAD AND PUSH1 0x40 MLOAD SWAP1 ISZERO ISZERO DUP2 MSTORE RETURN JUMPDEST CALLVALUE PUSH2 0x232 JUMPI PUSH1 0x20 CALLDATASIZE PUSH1 0x3 NOT ADD SLT PUSH2 0x232 JUMPI PUSH1 0x4 CALLDATALOAD DUP1 PUSH1 0x0 MSTORE PUSH1 0x2 PUSH1 0x20 MSTORE PUSH2 0xD5B PUSH1 0xFF PUSH1 0x4 PUSH1 0x40 PUSH1 0x0 KECCAK256 ADD SLOAD AND PUSH2 0x22ED JUMP JUMPDEST DUP1 PUSH1 0x0 MSTORE PUSH1 0x2 PUSH1 0x20 MSTORE PUSH2 0xD7F PUSH1 0x1 DUP1 PUSH1 0xA0 SHL SUB PUSH1 0x2 PUSH1 0x40 PUSH1 0x0 KECCAK256 ADD SLOAD AND CALLER EQ PUSH2 0x2339 JUMP JUMPDEST PUSH2 0xD87 PUSH2 0x22CA JUMP JUMPDEST DUP1 PUSH1 0x0 MSTORE PUSH1 0x2 PUSH1 0x20 MSTORE PUSH1 0x4 PUSH1 0x40 PUSH1 0x0 KECCAK256 ADD PUSH1 0xFF NOT DUP2 SLOAD AND SWAP1 SSTORE PUSH1 0x40 MLOAD SWAP1 TIMESTAMP DUP3 MSTORE PUSH32 0xBE161F50DC26F188A4DBEBD94BE20156CB3C4827D2ED9E131A355FF32823677E PUSH1 0x20 CALLER SWAP4 LOG3 PUSH1 0x1 DUP1 SSTORE STOP JUMPDEST CALLVALUE PUSH2 0x232 JUMPI PUSH1 0xC0 CALLDATASIZE PUSH1 0x3 NOT ADD SLT PUSH2 0x232 JUMPI PUSH1 0x1 PUSH1 0x1 PUSH1 0x40 SHL SUB PUSH1 0x24 CALLDATALOAD DUP2 DUP2 GT PUSH2 0x232 JUMPI PUSH2 0xE04 SWAP1 CALLDATASIZE SWAP1 PUSH1 0x4 ADD PUSH2 0x1CAD JUMP JUMPDEST SWAP1 PUSH1 0x44 CALLDATALOAD DUP4 DUP2 GT PUSH2 0x232 JUMPI PUSH2 0xE1D SWAP1 CALLDATASIZE SWAP1 PUSH1 0x4 ADD PUSH2 0x1CAD JUMP JUMPDEST SWAP3 PUSH1 0x64 CALLDATALOAD DUP6 DUP2 GT PUSH2 0x232 JUMPI PUSH2 0xE36 SWAP1 CALLDATASIZE SWAP1 PUSH1 0x4 ADD PUSH2 0x1CAD JUMP JUMPDEST SWAP6 PUSH1 0xA4 CALLDATALOAD SWAP1 DUP2 GT PUSH2 0x232 JUMPI PUSH2 0xE4F SWAP1 CALLDATASIZE SWAP1 PUSH1 0x4 ADD PUSH2 0x1EBE JUMP JUMPDEST SWAP6 SWAP1 SWAP5 PUSH2 0xE5A PUSH2 0x22CA JUMP JUMPDEST PUSH1 0x4 CALLDATALOAD ISZERO PUSH2 0x1212 JUMPI PUSH1 0x4 CALLDATALOAD PUSH1 0x0 MSTORE PUSH1 0x2 PUSH1 0x20 MSTORE PUSH1 0x40 PUSH1 0x0 KECCAK256 SLOAD PUSH2 0x11D7 JUMPI DUP2 ISZERO PUSH2 0x1199 JUMPI PUSH1 0x40 MLOAD PUSH2 0xE89 DUP2 PUSH2 0x1E6B JUMP JUMPDEST PUSH1 0x4 CALLDATALOAD DUP2 MSTORE PUSH2 0xE99 CALLDATASIZE DUP7 DUP5 PUSH2 0x1EEE JUMP JUMPDEST PUSH1 0x20 DUP3 ADD MSTORE CALLER PUSH1 0x40 DUP3 ADD MSTORE TIMESTAMP PUSH1 0x60 DUP3 ADD MSTORE PUSH1 0x1 PUSH1 0x80 DUP3 ADD MSTORE PUSH2 0xEBC CALLDATASIZE DUP5 DUP9 PUSH2 0x1EEE JUMP JUMPDEST PUSH1 0xA0 DUP3 ADD SWAP1 DUP2 MSTORE DUP9 PUSH2 0xF7E PUSH2 0xED2 CALLDATASIZE DUP14 DUP10 PUSH2 0x1EEE JUMP JUMPDEST PUSH1 0xC0 DUP6 ADD SWAP1 DUP2 MSTORE PUSH2 0xF74 PUSH2 0xEF1 DUP13 PUSH1 0xE0 DUP9 ADD SWAP6 PUSH1 0x84 CALLDATALOAD DUP8 MSTORE CALLDATASIZE SWAP2 PUSH2 0x1F95 JUMP JUMPDEST SWAP5 PUSH2 0x100 DUP8 ADD SWAP6 DUP7 MSTORE PUSH1 0x4 CALLDATALOAD PUSH1 0x0 MSTORE PUSH1 0x2 PUSH1 0x20 MSTORE PUSH2 0xF6A PUSH1 0x80 PUSH1 0x40 PUSH1 0x0 KECCAK256 SWAP9 DUP1 MLOAD DUP11 SSTORE PUSH2 0xF25 PUSH1 0x20 DUP3 ADD MLOAD PUSH1 0x1 DUP13 ADD PUSH2 0x2062 JUMP JUMPDEST PUSH1 0x2 DUP11 ADD PUSH1 0x1 DUP1 PUSH1 0xA0 SHL SUB PUSH1 0x40 DUP4 ADD MLOAD AND PUSH1 0x1 PUSH1 0x1 PUSH1 0x60 SHL SUB PUSH1 0xA0 SHL DUP3 SLOAD AND OR SWAP1 SSTORE PUSH1 0x60 DUP2 ADD MLOAD PUSH1 0x3 DUP12 ADD SSTORE ADD MLOAD ISZERO ISZERO PUSH1 0x4 DUP10 ADD SWAP1 PUSH1 0xFF DUP1 NOT DUP4 SLOAD AND SWAP2 ISZERO ISZERO AND OR SWAP1 SSTORE JUMP JUMPDEST MLOAD PUSH1 0x5 DUP8 ADD PUSH2 0x2062 JUMP JUMPDEST MLOAD PUSH1 0x6 DUP6 ADD PUSH2 0x2062 JUMP JUMPDEST MLOAD PUSH1 0x7 DUP4 ADD SSTORE MLOAD SWAP1 DUP2 MLOAD SWAP2 PUSH1 0x1 PUSH1 0x40 SHL DUP4 GT PUSH2 0xAB6 JUMPI PUSH1 0x8 DUP3 ADD SLOAD DUP4 PUSH1 0x8 DUP5 ADD SSTORE DUP1 DUP5 LT PUSH2 0x1120 JUMPI JUMPDEST POP PUSH1 0x20 PUSH1 0x8 SWAP2 ADD SWAP2 ADD PUSH1 0x0 MSTORE PUSH1 0x20 PUSH1 0x0 KECCAK256 PUSH1 0x0 SWAP2 JUMPDEST DUP4 DUP4 LT PUSH2 0x1103 JUMPI POP POP POP POP CALLER PUSH1 0x0 MSTORE PUSH1 0x3 PUSH1 0x20 MSTORE PUSH2 0xFE0 PUSH1 0x4 CALLDATALOAD PUSH1 0x40 PUSH1 0x0 KECCAK256 PUSH2 0x2166 JUMP JUMPDEST PUSH2 0xFEB PUSH1 0x4 CALLDATALOAD PUSH2 0x2129 JUMP JUMPDEST PUSH1 0x40 MLOAD DUP3 DUP7 DUP3 CALLDATACOPY DUP3 DUP2 ADD SWAP1 PUSH1 0x5 DUP3 MSTORE PUSH1 0x20 DUP2 PUSH1 0x4 CALLDATALOAD SWAP4 SUB ADD SWAP1 KECCAK256 SSTORE PUSH1 0x0 JUMPDEST DUP8 DUP2 LT PUSH2 0x10BD JUMPI POP PUSH2 0x10AA SWAP5 SWAP3 PUSH32 0x52AD1E0D7998F18FD8973F9BA5CB497388C6CDCB581980CFCE9D8589D3948D50 SWAP7 SWAP5 SWAP3 PUSH2 0x1095 PUSH32 0x83607EB75A55050A03E80AE5461D2137EDB1B40B3AFE987401CB60E90039F7CE SWAP4 DUP12 PUSH1 0x40 MLOAD DUP2 DUP7 DUP3 CALLDATACOPY PUSH1 0x20 DUP2 DUP4 DUP2 ADD PUSH1 0x7 DUP2 MSTORE SUB ADD SWAP1 KECCAK256 PUSH2 0x107F DUP2 SLOAD PUSH2 0x2188 JUMP JUMPDEST SWAP1 SSTORE PUSH1 0x40 MLOAD SWAP5 DUP6 SWAP5 CALLER SWAP10 PUSH1 0x4 CALLDATALOAD SWAP10 TIMESTAMP SWAP6 DUP9 PUSH2 0x21F9 JUMP JUMPDEST SUB SWAP1 LOG3 PUSH1 0x40 MLOAD SWAP2 DUP3 SWAP2 PUSH1 0x4 CALLDATALOAD SWAP6 TIMESTAMP SWAP2 DUP5 PUSH2 0x223C JUMP JUMPDEST SUB SWAP1 LOG2 PUSH1 0x1 DUP1 SSTORE PUSH1 0x20 PUSH1 0x40 MLOAD PUSH1 0x4 CALLDATALOAD DUP2 MSTORE RETURN JUMPDEST DUP1 PUSH2 0x10ED PUSH2 0x10CF PUSH2 0x10FE SWAP4 DUP12 DUP12 PUSH2 0x2197 JUMP JUMPDEST DUP1 PUSH1 0x40 MLOAD SWAP3 DUP4 CALLDATACOPY DUP2 ADD SWAP1 PUSH1 0x6 DUP3 MSTORE PUSH1 0x20 DUP2 PUSH1 0x4 CALLDATALOAD SWAP4 SUB ADD SWAP1 KECCAK256 PUSH2 0x2166 JUMP JUMPDEST PUSH2 0x90D PUSH2 0x908 PUSH2 0x901 DUP4 DUP13 DUP13 PUSH2 0x2197 JUMP JUMPDEST PUSH2 0x1009 JUMP JUMPDEST PUSH1 0x1 PUSH1 0x20 DUP3 PUSH2 0x1114 DUP4 SWAP5 MLOAD DUP7 PUSH2 0x2062 JUMP JUMPDEST ADD SWAP3 ADD SWAP3 ADD SWAP2 SWAP1 PUSH2 0xFBC JUMP JUMPDEST PUSH1 0x8 DUP4 ADD PUSH1 0x0 MSTORE PUSH1 0x20 PUSH1 0x0 KECCAK256 SWAP1 DUP5 DUP3 ADD JUMPDEST DUP2 DUP4 ADD DUP2 LT PUSH2 0x1141 JUMPI POP POP PUSH2 0xFA7 JUMP JUMPDEST DUP1 PUSH2 0x114E PUSH1 0x1 SWAP3 SLOAD PUSH2 0x1D9B JUMP JUMPDEST DUP1 PUSH2 0x115B JUMPI JUMPDEST POP ADD PUSH2 0x1131 JUMP JUMPDEST PUSH1 0x1F SWAP1 DUP2 DUP2 GT DUP5 EQ PUSH2 0x1174 JUMPI POP POP PUSH1 0x0 DUP2 SSTORE JUMPDEST DUP16 PUSH2 0x1154 JUMP JUMPDEST PUSH2 0x1190 PUSH1 0x0 SWAP3 DUP5 DUP5 MSTORE PUSH1 0x20 DUP5 KECCAK256 SWAP3 ADD PUSH1 0x5 SHR DUP3 ADD DUP6 DUP4 ADD PUSH2 0x2004 JUMP JUMPDEST DUP2 DUP4 SSTORE SSTORE PUSH2 0x116E JUMP JUMPDEST PUSH1 0x40 MLOAD PUSH3 0x461BCD PUSH1 0xE5 SHL DUP2 MSTORE PUSH1 0x20 PUSH1 0x4 DUP3 ADD MSTORE PUSH1 0x16 PUSH1 0x24 DUP3 ADD MSTORE PUSH22 0xC11C814DD1BDC9859D9481251081C995C5D5A5C9959 PUSH1 0x52 SHL PUSH1 0x44 DUP3 ADD MSTORE PUSH1 0x64 SWAP1 REVERT JUMPDEST PUSH1 0x40 MLOAD PUSH3 0x461BCD PUSH1 0xE5 SHL DUP2 MSTORE PUSH1 0x20 PUSH1 0x4 DUP3 ADD MSTORE PUSH1 0x13 PUSH1 0x24 DUP3 ADD MSTORE PUSH19 0x4861736820616C726561647920657869737473 PUSH1 0x68 SHL PUSH1 0x44 DUP3 ADD MSTORE PUSH1 0x64 SWAP1 REVERT JUMPDEST PUSH1 0x40 MLOAD PUSH3 0x461BCD PUSH1 0xE5 SHL DUP2 MSTORE PUSH1 0x20 PUSH1 0x4 DUP3 ADD MSTORE PUSH1 0xC PUSH1 0x24 DUP3 ADD MSTORE PUSH12 0x92DCECC2D8D2C840D0C2E6D PUSH1 0xA3 SHL PUSH1 0x44 DUP3 ADD MSTORE PUSH1 0x64 SWAP1 REVERT JUMPDEST CALLVALUE PUSH2 0x232 JUMPI PUSH1 0x0 CALLDATASIZE PUSH1 0x3 NOT ADD SLT PUSH2 0x232 JUMPI PUSH2 0x125F PUSH2 0x1F52 JUMP JUMPDEST PUSH1 0x0 DUP1 SLOAD PUSH1 0x1 PUSH1 0x1 PUSH1 0xA0 SHL SUB NOT DUP2 AND DUP3 SSTORE PUSH1 0x1 PUSH1 0x1 PUSH1 0xA0 SHL SUB AND PUSH32 0x8BE0079C531659141344CD1FD0A4F28419497F9722A3DAAFE3B4186F6B6457E0 DUP3 DUP1 LOG3 STOP JUMPDEST CALLVALUE PUSH2 0x232 JUMPI PUSH1 0x0 CALLDATASIZE PUSH1 0x3 NOT ADD SLT PUSH2 0x232 JUMPI PUSH1 0x9 SLOAD PUSH2 0x12BC DUP2 PUSH2 0x1F7E JUMP JUMPDEST SWAP1 PUSH2 0x12CA PUSH1 0x40 MLOAD SWAP3 DUP4 PUSH2 0x1E87 JUMP JUMPDEST DUP1 DUP3 MSTORE PUSH1 0x20 SWAP1 DUP2 DUP4 ADD SWAP1 DUP2 PUSH1 0x9 PUSH1 0x0 MSTORE PUSH32 0x6E1540171B6C0C960B71A7020D9F60077F6AF931A8BBF590DA0223DACF75C7AF PUSH1 0x0 SWAP2 JUMPDEST DUP4 DUP4 LT PUSH2 0x1366 JUMPI POP POP POP POP PUSH1 0x40 MLOAD SWAP2 DUP1 DUP4 ADD SWAP4 DUP2 DUP5 MSTORE MLOAD DUP1 SWAP5 MSTORE PUSH1 0x40 DUP4 ADD SWAP4 PUSH1 0x40 DUP2 PUSH1 0x5 SHL DUP6 ADD ADD SWAP3 SWAP2 PUSH1 0x0 SWAP6 JUMPDEST DUP3 DUP8 LT PUSH2 0x133A JUMPI DUP6 DUP6 SUB DUP7 RETURN JUMPDEST SWAP1 SWAP2 SWAP3 SWAP4 DUP3 DUP1 PUSH2 0x1356 PUSH1 0x1 SWAP4 PUSH1 0x3F NOT DUP11 DUP3 SUB ADD DUP7 MSTORE DUP9 MLOAD PUSH2 0x1C88 JUMP JUMPDEST SWAP7 ADD SWAP3 ADD SWAP7 ADD SWAP6 SWAP3 SWAP2 SWAP1 SWAP3 PUSH2 0x132D JUMP JUMPDEST PUSH1 0x1 DUP7 DUP2 SWAP3 PUSH1 0x40 SWAP10 SWAP9 SWAP10 MLOAD PUSH2 0x137F DUP2 PUSH2 0x4C5 DUP2 DUP10 PUSH2 0x1DD5 JUMP JUMPDEST DUP2 MSTORE ADD SWAP3 ADD SWAP3 ADD SWAP2 SWAP1 SWAP6 SWAP5 SWAP6 PUSH2 0x12FF JUMP JUMPDEST CALLVALUE PUSH2 0x232 JUMPI PUSH1 0x40 CALLDATASIZE PUSH1 0x3 NOT ADD SLT PUSH2 0x232 JUMPI PUSH2 0x13A9 PUSH2 0x1EA8 JUMP JUMPDEST PUSH1 0x1 PUSH1 0x1 PUSH1 0xA0 SHL SUB AND PUSH1 0x0 SWAP1 DUP2 MSTORE PUSH1 0x3 PUSH1 0x20 MSTORE PUSH1 0x40 SWAP1 KECCAK256 DUP1 SLOAD PUSH1 0x24 CALLDATALOAD SWAP2 SWAP1 DUP3 LT ISZERO PUSH2 0x232 JUMPI PUSH1 0x20 SWAP2 PUSH2 0x13DA SWAP2 PUSH2 0x1D83 JUMP JUMPDEST SWAP1 SLOAD SWAP1 PUSH1 0x3 SHL SHR PUSH1 0x40 MLOAD SWAP1 DUP2 MSTORE RETURN JUMPDEST CALLVALUE PUSH2 0x232 JUMPI PUSH1 0x20 DUP1 PUSH1 0x3 NOT CALLDATASIZE ADD SLT PUSH2 0x232 JUMPI PUSH1 0x1 PUSH1 0x1 PUSH1 0xA0 SHL SUB PUSH2 0x140B PUSH2 0x1EA8 JUMP JUMPDEST AND PUSH1 0x0 MSTORE PUSH1 0x3 DUP2 MSTORE PUSH1 0x40 PUSH1 0x0 KECCAK256 SWAP1 PUSH1 0x40 MLOAD SWAP1 DUP2 DUP2 DUP5 SLOAD SWAP2 DUP3 DUP2 MSTORE ADD SWAP4 PUSH1 0x0 MSTORE DUP2 PUSH1 0x0 KECCAK256 SWAP2 PUSH1 0x0 SWAP1 JUMPDEST DUP3 DUP3 LT PUSH2 0x1456 JUMPI PUSH2 0x48F DUP6 PUSH2 0x144A DUP2 DUP10 SUB DUP3 PUSH2 0x1E87 JUMP JUMPDEST PUSH1 0x40 MLOAD SWAP2 DUP3 SWAP2 DUP3 PUSH2 0x1CDA JUMP JUMPDEST DUP4 SLOAD DUP7 MSTORE SWAP5 DUP6 ADD SWAP5 PUSH1 0x1 SWAP4 DUP5 ADD SWAP4 SWAP1 SWAP2 ADD SWAP1 PUSH2 0x1433 JUMP JUMPDEST CALLVALUE PUSH2 0x232 JUMPI PUSH1 0x20 CALLDATASIZE PUSH1 0x3 NOT ADD SLT PUSH2 0x232 JUMPI PUSH1 0x4 CALLDATALOAD PUSH1 0x0 MSTORE PUSH1 0x2 PUSH1 0x20 MSTORE PUSH1 0x40 PUSH1 0x0 KECCAK256 DUP1 SLOAD PUSH1 0x40 MLOAD SWAP2 PUSH2 0x14AC DUP4 PUSH2 0x14A5 DUP2 PUSH1 0x1 DUP6 ADD PUSH2 0x1DD5 JUMP JUMPDEST SUB DUP5 PUSH2 0x1E87 JUMP JUMPDEST PUSH2 0x1554 PUSH1 0x1 DUP1 PUSH1 0xA0 SHL SUB PUSH1 0x2 DUP4 ADD SLOAD AND SWAP2 PUSH2 0x1546 PUSH1 0x3 DUP3 ADD SLOAD SWAP4 PUSH1 0xFF PUSH1 0x4 DUP5 ADD SLOAD AND PUSH1 0x40 MLOAD SWAP1 PUSH2 0x14EA DUP3 PUSH2 0x14E3 DUP2 PUSH1 0x5 DUP10 ADD PUSH2 0x1DD5 JUMP JUMPDEST SUB DUP4 PUSH2 0x1E87 JUMP JUMPDEST PUSH1 0x7 PUSH1 0x40 MLOAD SWAP6 PUSH2 0x1508 DUP8 PUSH2 0x1501 DUP2 PUSH1 0x6 DUP6 ADD PUSH2 0x1DD5 JUMP JUMPDEST SUB DUP9 PUSH2 0x1E87 JUMP JUMPDEST ADD SLOAD SWAP7 PUSH2 0x1527 PUSH1 0x40 MLOAD SWAP11 DUP12 SWAP11 DUP12 MSTORE PUSH2 0x100 DUP1 PUSH1 0x20 DUP14 ADD MSTORE DUP12 ADD SWAP1 PUSH2 0x1C88 JUMP JUMPDEST SWAP4 PUSH1 0x40 DUP11 ADD MSTORE PUSH1 0x60 DUP10 ADD MSTORE ISZERO ISZERO PUSH1 0x80 DUP9 ADD MSTORE DUP7 DUP3 SUB PUSH1 0xA0 DUP9 ADD MSTORE PUSH2 0x1C88 JUMP JUMPDEST SWAP1 DUP5 DUP3 SUB PUSH1 0xC0 DUP7 ADD MSTORE PUSH2 0x1C88 JUMP JUMPDEST SWAP1 PUSH1 0xE0 DUP4 ADD MSTORE SUB SWAP1 RETURN JUMPDEST CALLVALUE PUSH2 0x232 JUMPI PUSH1 0x20 CALLDATASIZE PUSH1 0x3 NOT ADD SLT PUSH2 0x232 JUMPI PUSH1 0x4 CALLDATALOAD PUSH1 0x8 SLOAD DUP2 LT ISZERO PUSH2 0x1587 JUMPI PUSH2 0x2A2 PUSH1 0x20 SWAP2 PUSH2 0x1D15 JUMP JUMPDEST PUSH1 0x40 MLOAD PUSH3 0x461BCD PUSH1 0xE5 SHL DUP2 MSTORE PUSH1 0x20 PUSH1 0x4 DUP3 ADD MSTORE PUSH1 0x13 PUSH1 0x24 DUP3 ADD MSTORE PUSH19 0x496E646578206F7574206F6620626F756E6473 PUSH1 0x68 SHL PUSH1 0x44 DUP3 ADD MSTORE PUSH1 0x64 SWAP1 REVERT JUMPDEST CALLVALUE PUSH2 0x232 JUMPI PUSH1 0x40 CALLDATASIZE PUSH1 0x3 NOT ADD SLT PUSH2 0x232 JUMPI PUSH1 0x1 PUSH1 0x1 PUSH1 0x40 SHL SUB PUSH1 0x4 CALLDATALOAD PUSH1 0x24 CALLDATALOAD DUP3 DUP2 GT PUSH2 0x232 JUMPI PUSH2 0x15F6 SWAP1 CALLDATASIZE SWAP1 PUSH1 0x4 ADD PUSH2 0x1CAD JUMP JUMPDEST DUP3 PUSH1 0x0 MSTORE PUSH1 0x20 PUSH1 0x2 DUP2 MSTORE PUSH2 0x1614 PUSH1 0xFF PUSH1 0x4 PUSH1 0x40 PUSH1 0x0 KECCAK256 ADD SLOAD AND PUSH2 0x22ED JUMP JUMPDEST DUP4 PUSH1 0x0 MSTORE PUSH1 0x2 DUP2 MSTORE PUSH2 0x1637 PUSH1 0x1 DUP1 PUSH1 0xA0 SHL SUB PUSH1 0x2 PUSH1 0x40 PUSH1 0x0 KECCAK256 ADD SLOAD AND CALLER EQ PUSH2 0x2339 JUMP JUMPDEST PUSH2 0x163F PUSH2 0x22CA JUMP JUMPDEST DUP2 ISZERO PUSH2 0x17E0 JUMPI DUP4 PUSH1 0x0 MSTORE PUSH1 0x2 DUP2 MSTORE PUSH2 0x4C5 PUSH2 0x1667 PUSH1 0x5 PUSH1 0x40 PUSH1 0x0 KECCAK256 ADD PUSH1 0x40 MLOAD SWAP3 DUP4 DUP1 SWAP3 PUSH2 0x1DD5 JUMP JUMPDEST DUP2 DUP2 MLOAD DUP1 PUSH2 0x17B7 JUMPI JUMPDEST POP POP POP DUP4 PUSH1 0x0 MSTORE PUSH1 0x2 DUP2 MSTORE PUSH1 0x5 PUSH1 0x40 PUSH1 0x0 KECCAK256 ADD SWAP5 DUP3 GT PUSH2 0xAB6 JUMPI PUSH2 0x169E DUP3 PUSH2 0x1698 DUP8 SLOAD PUSH2 0x1D9B JUMP JUMPDEST DUP8 PUSH2 0x201B JUMP JUMPDEST PUSH1 0x0 SWAP5 PUSH1 0x1F DUP4 GT PUSH1 0x1 EQ PUSH2 0x1733 JUMPI DUP3 PUSH32 0x26E195FB36A9E7F1104EB490680EECC0D1CFAB1970C26A47F527B076F2A14E69 SWAP6 SWAP7 PUSH1 0x0 SWAP2 PUSH2 0x1728 JUMPI JUMPDEST POP DUP4 PUSH1 0x1 SHL SWAP1 PUSH1 0x0 NOT DUP6 PUSH1 0x3 SHL SHR NOT AND OR SWAP1 SSTORE JUMPDEST DUP5 PUSH1 0x40 MLOAD DUP4 DUP6 DUP3 CALLDATACOPY DUP3 DUP2 DUP6 DUP2 ADD PUSH1 0x5 DUP2 MSTORE SUB ADD SWAP1 KECCAK256 SSTORE PUSH2 0x1719 PUSH1 0x40 MLOAD SWAP4 DUP5 SWAP4 PUSH1 0x40 DUP6 MSTORE PUSH1 0x40 DUP6 ADD SWAP2 PUSH2 0x21D8 JUMP JUMPDEST SWAP1 TIMESTAMP SWAP1 DUP4 ADD MSTORE SUB SWAP1 LOG2 PUSH1 0x1 DUP1 SSTORE STOP JUMPDEST SWAP1 POP DUP5 ADD CALLDATALOAD DUP8 PUSH2 0x16D8 JUMP JUMPDEST PUSH1 0x1F NOT DUP4 AND SWAP6 DUP2 PUSH1 0x0 MSTORE DUP3 PUSH1 0x0 KECCAK256 SWAP1 PUSH1 0x0 JUMPDEST DUP9 DUP2 LT PUSH2 0x17A0 JUMPI POP DUP5 PUSH32 0x26E195FB36A9E7F1104EB490680EECC0D1CFAB1970C26A47F527B076F2A14E69 SWAP8 SWAP9 LT PUSH2 0x1786 JUMPI JUMPDEST POP POP PUSH1 0x1 DUP4 DUP2 SHL ADD SWAP1 SSTORE PUSH2 0x16EC JUMP JUMPDEST DUP6 ADD CALLDATALOAD PUSH1 0x0 NOT PUSH1 0x3 DUP7 SWAP1 SHL PUSH1 0xF8 AND SHR NOT AND SWAP1 SSTORE DUP7 DUP1 PUSH2 0x1777 JUMP JUMPDEST SWAP1 SWAP2 DUP5 PUSH1 0x1 DUP2 SWAP3 DUP6 DUP11 ADD CALLDATALOAD DUP2 SSTORE ADD SWAP4 ADD SWAP2 ADD PUSH2 0x1745 JUMP JUMPDEST PUSH1 0x0 SWAP3 DUP2 PUSH2 0x17CD DUP5 SWAP4 PUSH1 0x40 MLOAD DUP1 SWAP7 DUP2 SWAP6 ADD PUSH2 0x1C65 JUMP JUMPDEST DUP2 ADD PUSH1 0x5 DUP2 MSTORE SUB ADD SWAP1 KECCAK256 SSTORE DUP6 DUP2 DUP2 PUSH2 0x1670 JUMP JUMPDEST PUSH1 0x64 SWAP1 PUSH1 0x40 MLOAD SWAP1 PUSH3 0x461BCD PUSH1 0xE5 SHL DUP3 MSTORE PUSH1 0x4 DUP3 ADD MSTORE PUSH1 0x15 PUSH1 0x24 DUP3 ADD MSTORE PUSH21 0x125B9D985B1A59080C11C814DD1BDC9859D9481251 PUSH1 0x5A SHL PUSH1 0x44 DUP3 ADD MSTORE REVERT JUMPDEST CALLVALUE PUSH2 0x232 JUMPI PUSH1 0x20 CALLDATASIZE PUSH1 0x3 NOT ADD SLT PUSH2 0x232 JUMPI PUSH1 0x4 CALLDATALOAD PUSH1 0x9 SLOAD DUP2 LT ISZERO PUSH2 0x232 JUMPI PUSH2 0x1843 SWAP1 PUSH2 0x1D4C JUMP JUMPDEST PUSH2 0x1871 JUMPI PUSH2 0x4C5 PUSH2 0x185D PUSH2 0x48F SWAP3 PUSH1 0x40 MLOAD SWAP3 DUP4 DUP1 SWAP3 PUSH2 0x1DD5 JUMP JUMPDEST PUSH1 0x40 MLOAD SWAP2 DUP3 SWAP2 PUSH1 0x20 DUP4 MSTORE PUSH1 0x20 DUP4 ADD SWAP1 PUSH2 0x1C88 JUMP JUMPDEST PUSH4 0x4E487B71 PUSH1 0xE0 SHL PUSH1 0x0 MSTORE PUSH1 0x0 PUSH1 0x4 MSTORE PUSH1 0x24 PUSH1 0x0 REVERT JUMPDEST CALLVALUE PUSH2 0x232 JUMPI PUSH1 0x20 DUP1 PUSH1 0x3 NOT CALLDATASIZE ADD SLT PUSH2 0x232 JUMPI PUSH1 0x4 CALLDATALOAD DUP1 PUSH1 0x0 MSTORE PUSH1 0x2 DUP3 MSTORE PUSH2 0x18B8 PUSH1 0xFF PUSH1 0x4 PUSH1 0x40 PUSH1 0x0 KECCAK256 ADD SLOAD AND PUSH2 0x22ED JUMP JUMPDEST PUSH2 0x18C0 PUSH2 0x22CA JUMP JUMPDEST DUP1 PUSH1 0x0 MSTORE PUSH1 0x2 DUP3 MSTORE PUSH1 0x40 PUSH1 0x0 KECCAK256 SLOAD ISZERO PUSH2 0x191C JUMPI DUP1 PUSH1 0x0 MSTORE PUSH1 0x4 DUP3 MSTORE PUSH1 0x40 PUSH1 0x0 KECCAK256 PUSH1 0x1 PUSH1 0xFF NOT DUP3 SLOAD AND OR SWAP1 SSTORE PUSH32 0x884DBC6CEE9C8F554B4538D0257E260EE7330518C333079DD23AF96FE728C59D PUSH1 0x40 MLOAD SWAP3 TIMESTAMP DUP5 MSTORE CALLER SWAP4 LOG3 PUSH1 0x1 DUP1 SSTORE STOP JUMPDEST PUSH1 0x40 MLOAD PUSH3 0x461BCD PUSH1 0xE5 SHL DUP2 MSTORE PUSH1 0x4 DUP2 ADD DUP4 SWAP1 MSTORE PUSH1 0x13 PUSH1 0x24 DUP3 ADD MSTORE PUSH19 0x12185CDA08191BD95CC81B9BDD08195E1A5CDD PUSH1 0x6A SHL PUSH1 0x44 DUP3 ADD MSTORE PUSH1 0x64 SWAP1 REVERT JUMPDEST CALLVALUE PUSH2 0x232 JUMPI PUSH1 0x20 CALLDATASIZE PUSH1 0x3 NOT ADD SLT PUSH2 0x232 JUMPI PUSH1 0x4 CALLDATALOAD PUSH1 0x8 SLOAD DUP2 LT ISZERO PUSH2 0x232 JUMPI PUSH2 0x2A2 PUSH1 0x20 SWAP2 PUSH2 0x1D15 JUMP JUMPDEST CALLVALUE PUSH2 0x232 JUMPI PUSH1 0x20 DUP1 PUSH1 0x3 NOT CALLDATASIZE ADD SLT PUSH2 0x232 JUMPI PUSH1 0x4 CALLDATALOAD PUSH1 0x1 PUSH1 0x1 PUSH1 0x40 SHL SUB DUP2 GT PUSH2 0x232 JUMPI PUSH2 0x19B2 DUP3 SWAP2 CALLDATASIZE SWAP1 PUSH1 0x4 ADD PUSH2 0x1CAD JUMP JUMPDEST SWAP2 SWAP1 DUP3 PUSH1 0x40 MLOAD SWAP4 DUP5 SWAP3 DUP4 CALLDATACOPY DUP2 ADD PUSH1 0x6 DUP2 MSTORE SUB ADD SWAP1 KECCAK256 SWAP1 PUSH1 0x40 MLOAD SWAP1 DUP2 DUP2 DUP5 SLOAD SWAP2 DUP3 DUP2 MSTORE ADD SWAP4 PUSH1 0x0 MSTORE DUP2 PUSH1 0x0 KECCAK256 SWAP2 PUSH1 0x0 SWAP1 JUMPDEST DUP3 DUP3 LT PUSH2 0x19F9 JUMPI PUSH2 0x48F DUP6 PUSH2 0x144A DUP2 DUP10 SUB DUP3 PUSH2 0x1E87 JUMP JUMPDEST DUP4 SLOAD DUP7 MSTORE SWAP5 DUP6 ADD SWAP5 PUSH1 0x1 SWAP4 DUP5 ADD SWAP4 SWAP1 SWAP2 ADD SWAP1 PUSH2 0x19E2 JUMP JUMPDEST CALLVALUE PUSH2 0x232 JUMPI PUSH1 0x20 CALLDATASIZE PUSH1 0x3 NOT ADD SLT PUSH2 0x232 JUMPI PUSH2 0x100 DUP2 PUSH2 0x1A30 PUSH1 0x60 SWAP4 PUSH2 0x1E6B JUMP JUMPDEST PUSH1 0x0 DUP2 MSTORE DUP3 PUSH1 0x20 DUP3 ADD MSTORE PUSH1 0x0 PUSH1 0x40 DUP3 ADD MSTORE PUSH1 0x0 DUP4 DUP3 ADD MSTORE PUSH1 0x0 PUSH1 0x80 DUP3 ADD MSTORE DUP3 PUSH1 0xA0 DUP3 ADD MSTORE DUP3 PUSH1 0xC0 DUP3 ADD MSTORE PUSH1 0x0 PUSH1 0xE0 DUP3 ADD MSTORE ADD MSTORE PUSH1 0x4 CALLDATALOAD PUSH1 0x0 MSTORE PUSH1 0x2 PUSH1 0x20 MSTORE PUSH1 0x40 PUSH1 0x0 KECCAK256 PUSH1 0x8 PUSH1 0x40 MLOAD SWAP2 PUSH2 0x1A82 DUP4 PUSH2 0x1E6B JUMP JUMPDEST DUP1 SLOAD DUP4 MSTORE PUSH1 0x40 MLOAD PUSH2 0x1A9A DUP2 PUSH2 0x4C5 DUP2 PUSH1 0x1 DUP7 ADD PUSH2 0x1DD5 JUMP JUMPDEST PUSH1 0x20 DUP5 ADD MSTORE PUSH1 0x2 DUP2 ADD SLOAD PUSH1 0x1 PUSH1 0x1 PUSH1 0xA0 SHL SUB AND PUSH1 0x40 DUP1 DUP6 ADD SWAP2 SWAP1 SWAP2 MSTORE PUSH1 0x3 DUP3 ADD SLOAD PUSH1 0x60 DUP6 ADD MSTORE PUSH1 0x4 DUP3 ADD SLOAD PUSH1 0xFF AND ISZERO ISZERO PUSH1 0x80 DUP6 ADD MSTORE MLOAD PUSH2 0x1AE1 DUP2 PUSH2 0x4C5 DUP2 PUSH1 0x5 DUP7 ADD PUSH2 0x1DD5 JUMP JUMPDEST PUSH1 0xA0 DUP5 ADD MSTORE PUSH1 0x40 MLOAD PUSH2 0x1AFA DUP2 PUSH2 0x4C5 DUP2 PUSH1 0x6 DUP7 ADD PUSH2 0x1DD5 JUMP JUMPDEST PUSH1 0xC0 DUP5 ADD MSTORE PUSH1 0x7 DUP2 ADD SLOAD PUSH1 0xE0 DUP5 ADD MSTORE ADD DUP1 SLOAD PUSH2 0x1B15 DUP2 PUSH2 0x1F7E JUMP JUMPDEST SWAP2 PUSH2 0x1B23 PUSH1 0x40 MLOAD SWAP4 DUP5 PUSH2 0x1E87 JUMP JUMPDEST DUP2 DUP4 MSTORE PUSH1 0x20 DUP4 ADD SWAP1 PUSH1 0x0 MSTORE PUSH1 0x20 PUSH1 0x0 KECCAK256 PUSH1 0x0 SWAP2 JUMPDEST DUP4 DUP4 LT PUSH2 0x1C40 JUMPI DUP6 DUP6 PUSH2 0x100 DUP3 ADD MSTORE PUSH1 0x40 MLOAD DUP1 SWAP2 PUSH1 0x20 DUP3 MSTORE DUP1 MLOAD PUSH1 0x20 DUP4 ADD MSTORE PUSH2 0x1B71 PUSH1 0x20 DUP3 ADD MLOAD PUSH2 0x120 PUSH1 0x40 DUP6 ADD MSTORE PUSH2 0x140 DUP5 ADD SWAP1 PUSH2 0x1C88 JUMP JUMPDEST PUSH1 0x1 DUP1 PUSH1 0xA0 SHL SUB PUSH1 0x40 DUP4 ADD MLOAD AND PUSH1 0x60 DUP5 ADD MSTORE PUSH1 0x60 DUP3 ADD MLOAD PUSH1 0x80 DUP5 ADD MSTORE PUSH1 0x80 DUP3 ADD MLOAD ISZERO ISZERO PUSH1 0xA0 DUP5 ADD MSTORE PUSH2 0x100 PUSH2 0x1BCF PUSH2 0x1BBB PUSH1 0xA0 DUP6 ADD MLOAD SWAP4 PUSH1 0x1F NOT SWAP5 DUP6 DUP9 DUP4 SUB ADD PUSH1 0xC0 DUP10 ADD MSTORE PUSH2 0x1C88 JUMP JUMPDEST PUSH1 0xC0 DUP6 ADD MLOAD DUP5 DUP8 DUP4 SUB ADD PUSH1 0xE0 DUP9 ADD MSTORE PUSH2 0x1C88 JUMP JUMPDEST SWAP3 PUSH1 0xE0 DUP2 ADD MLOAD DUP3 DUP7 ADD MSTORE ADD MLOAD SWAP2 DUP2 DUP5 DUP3 SUB ADD PUSH2 0x120 DUP6 ADD MSTORE DUP3 MLOAD SWAP1 DUP2 DUP2 MSTORE PUSH1 0x20 DUP2 ADD PUSH1 0x20 DUP1 DUP5 PUSH1 0x5 SHL DUP5 ADD ADD SWAP6 ADD SWAP4 PUSH1 0x0 SWAP3 JUMPDEST DUP5 DUP5 LT PUSH2 0x1C0F JUMPI DUP8 DUP8 SUB DUP9 RETURN JUMPDEST SWAP2 SWAP4 SWAP6 DUP2 SWAP4 SWAP6 SWAP8 POP PUSH1 0x20 PUSH2 0x1C2E DUP3 PUSH1 0x1 SWAP5 DUP7 DUP5 SWAP6 SUB ADD DUP9 MSTORE DUP11 MLOAD PUSH2 0x1C88 JUMP JUMPDEST SWAP9 ADD SWAP5 ADD SWAP5 ADD SWAP2 DUP8 SWAP7 SWAP6 SWAP4 SWAP5 SWAP2 PUSH2 0x1C02 JUMP JUMPDEST PUSH1 0x1 PUSH1 0x20 DUP2 SWAP3 PUSH1 0x40 MLOAD PUSH2 0x1C57 DUP2 PUSH2 0x4C5 DUP2 DUP10 PUSH2 0x1DD5 JUMP JUMPDEST DUP2 MSTORE ADD SWAP3 ADD SWAP3 ADD SWAP2 SWAP1 PUSH2 0x1B37 JUMP JUMPDEST PUSH1 0x0 JUMPDEST DUP4 DUP2 LT PUSH2 0x1C78 JUMPI POP POP PUSH1 0x0 SWAP2 ADD MSTORE JUMP JUMPDEST DUP2 DUP2 ADD MLOAD DUP4 DUP3 ADD MSTORE PUSH1 0x20 ADD PUSH2 0x1C68 JUMP JUMPDEST SWAP1 PUSH1 0x20 SWAP2 PUSH2 0x1CA1 DUP2 MLOAD DUP1 SWAP3 DUP2 DUP6 MSTORE DUP6 DUP1 DUP7 ADD SWAP2 ADD PUSH2 0x1C65 JUMP JUMPDEST PUSH1 0x1F ADD PUSH1 0x1F NOT AND ADD ADD SWAP1 JUMP JUMPDEST SWAP2 DUP2 PUSH1 0x1F DUP5 ADD SLT ISZERO PUSH2 0x232 JUMPI DUP3 CALLDATALOAD SWAP2 PUSH1 0x1 PUSH1 0x1 PUSH1 0x40 SHL SUB DUP4 GT PUSH2 0x232 JUMPI PUSH1 0x20 DUP4 DUP2 DUP7 ADD SWAP6 ADD ADD GT PUSH2 0x232 JUMPI JUMP JUMPDEST PUSH1 0x20 SWAP1 DUP2 PUSH1 0x40 DUP2 DUP4 ADD SWAP3 DUP3 DUP2 MSTORE DUP6 MLOAD DUP1 SWAP5 MSTORE ADD SWAP4 ADD SWAP2 PUSH1 0x0 JUMPDEST DUP3 DUP2 LT PUSH2 0x1D01 JUMPI POP POP POP POP SWAP1 JUMP JUMPDEST DUP4 MLOAD DUP6 MSTORE SWAP4 DUP2 ADD SWAP4 SWAP3 DUP2 ADD SWAP3 PUSH1 0x1 ADD PUSH2 0x1CF3 JUMP JUMPDEST PUSH1 0x8 SLOAD DUP2 LT ISZERO PUSH2 0x521 JUMPI PUSH1 0x8 PUSH1 0x0 MSTORE PUSH32 0xF3F7A9FE364FAAB93B216DA50A3214154F22A0A2B415B23A84C8169E8B636EE3 ADD SWAP1 PUSH1 0x0 SWAP1 JUMP JUMPDEST PUSH1 0x9 SLOAD DUP2 LT ISZERO PUSH2 0x521 JUMPI PUSH1 0x9 PUSH1 0x0 MSTORE PUSH32 0x6E1540171B6C0C960B71A7020D9F60077F6AF931A8BBF590DA0223DACF75C7AF ADD SWAP1 PUSH1 0x0 SWAP1 JUMP JUMPDEST DUP1 SLOAD DUP3 LT ISZERO PUSH2 0x521 JUMPI PUSH1 0x0 MSTORE PUSH1 0x20 PUSH1 0x0 KECCAK256 ADD SWAP1 PUSH1 0x0 SWAP1 JUMP JUMPDEST SWAP1 PUSH1 0x1 DUP3 DUP2 SHR SWAP3 AND DUP1 ISZERO PUSH2 0x1DCB JUMPI JUMPDEST PUSH1 0x20 DUP4 LT EQ PUSH2 0x1DB5 JUMPI JUMP JUMPDEST PUSH4 0x4E487B71 PUSH1 0xE0 SHL PUSH1 0x0 MSTORE PUSH1 0x22 PUSH1 0x4 MSTORE PUSH1 0x24 PUSH1 0x0 REVERT JUMPDEST SWAP2 PUSH1 0x7F AND SWAP2 PUSH2 0x1DAA JUMP JUMPDEST SWAP1 PUSH1 0x0 SWAP3 SWAP2 DUP1 SLOAD SWAP2 PUSH2 0x1DE6 DUP4 PUSH2 0x1D9B JUMP JUMPDEST SWAP2 DUP3 DUP3 MSTORE PUSH1 0x1 SWAP4 DUP5 DUP2 AND SWAP1 DUP2 PUSH1 0x0 EQ PUSH2 0x1E48 JUMPI POP PUSH1 0x1 EQ PUSH2 0x1E08 JUMPI JUMPDEST POP POP POP POP JUMP JUMPDEST SWAP1 SWAP2 SWAP4 SWAP5 POP PUSH1 0x0 MSTORE PUSH1 0x20 SWAP3 DUP4 PUSH1 0x0 KECCAK256 SWAP3 DUP5 PUSH1 0x0 SWAP5 JUMPDEST DUP4 DUP7 LT PUSH2 0x1E34 JUMPI POP POP POP POP ADD ADD SWAP1 CODESIZE DUP1 DUP1 DUP1 PUSH2 0x1E02 JUMP JUMPDEST DUP1 SLOAD DUP6 DUP8 ADD DUP4 ADD MSTORE SWAP5 ADD SWAP4 DUP6 SWAP1 DUP3 ADD PUSH2 0x1E1D JUMP JUMPDEST SWAP3 SWAP5 POP POP POP PUSH1 0x20 SWAP4 SWAP5 POP PUSH1 0xFF NOT AND DUP4 DUP4 ADD MSTORE ISZERO ISZERO PUSH1 0x5 SHL ADD ADD SWAP1 CODESIZE DUP1 DUP1 DUP1 PUSH2 0x1E02 JUMP JUMPDEST PUSH2 0x120 DUP2 ADD SWAP1 DUP2 LT PUSH1 0x1 PUSH1 0x1 PUSH1 0x40 SHL SUB DUP3 GT OR PUSH2 0xAB6 JUMPI PUSH1 0x40 MSTORE JUMP JUMPDEST SWAP1 PUSH1 0x1F DUP1 NOT SWAP2 ADD AND DUP2 ADD SWAP1 DUP2 LT PUSH1 0x1 PUSH1 0x1 PUSH1 0x40 SHL SUB DUP3 GT OR PUSH2 0xAB6 JUMPI PUSH1 0x40 MSTORE JUMP JUMPDEST PUSH1 0x4 CALLDATALOAD SWAP1 PUSH1 0x1 PUSH1 0x1 PUSH1 0xA0 SHL SUB DUP3 AND DUP3 SUB PUSH2 0x232 JUMPI JUMP JUMPDEST SWAP2 DUP2 PUSH1 0x1F DUP5 ADD SLT ISZERO PUSH2 0x232 JUMPI DUP3 CALLDATALOAD SWAP2 PUSH1 0x1 PUSH1 0x1 PUSH1 0x40 SHL SUB DUP4 GT PUSH2 0x232 JUMPI PUSH1 0x20 DUP1 DUP6 ADD SWAP5 DUP5 PUSH1 0x5 SHL ADD ADD GT PUSH2 0x232 JUMPI JUMP JUMPDEST SWAP3 SWAP2 SWAP3 PUSH1 0x1 PUSH1 0x1 PUSH1 0x40 SHL SUB DUP3 GT PUSH2 0xAB6 JUMPI PUSH1 0x40 MLOAD SWAP2 PUSH2 0x1F17 PUSH1 0x1F DUP3 ADD PUSH1 0x1F NOT AND PUSH1 0x20 ADD DUP5 PUSH2 0x1E87 JUMP JUMPDEST DUP3 SWAP5 DUP2 DUP5 MSTORE DUP2 DUP4 ADD GT PUSH2 0x232 JUMPI DUP3 DUP2 PUSH1 0x20 SWAP4 DUP5 PUSH1 0x0 SWAP7 ADD CALLDATACOPY ADD ADD MSTORE JUMP JUMPDEST SWAP1 DUP1 PUSH1 0x1F DUP4 ADD SLT ISZERO PUSH2 0x232 JUMPI DUP2 PUSH1 0x20 PUSH2 0x1F4F SWAP4 CALLDATALOAD SWAP2 ADD PUSH2 0x1EEE JUMP JUMPDEST SWAP1 JUMP JUMPDEST PUSH1 0x0 SLOAD PUSH1 0x1 PUSH1 0x1 PUSH1 0xA0 SHL SUB AND CALLER SUB PUSH2 0x1F66 JUMPI JUMP JUMPDEST PUSH1 0x40 MLOAD PUSH4 0x118CDAA7 PUSH1 0xE0 SHL DUP2 MSTORE CALLER PUSH1 0x4 DUP3 ADD MSTORE PUSH1 0x24 SWAP1 REVERT JUMPDEST PUSH1 0x1 PUSH1 0x1 PUSH1 0x40 SHL SUB DUP2 GT PUSH2 0xAB6 JUMPI PUSH1 0x5 SHL PUSH1 0x20 ADD SWAP1 JUMP JUMPDEST SWAP3 SWAP2 SWAP1 SWAP3 PUSH2 0x1FA2 DUP5 PUSH2 0x1F7E JUMP JUMPDEST SWAP2 PUSH2 0x1FB0 PUSH1 0x40 MLOAD SWAP4 DUP5 PUSH2 0x1E87 JUMP JUMPDEST DUP3 SWAP5 DUP1 DUP5 MSTORE PUSH1 0x20 DUP1 SWAP5 ADD SWAP1 PUSH1 0x5 SHL DUP4 ADD SWAP3 DUP3 DUP5 GT PUSH2 0x232 JUMPI DUP1 SWAP2 JUMPDEST DUP5 DUP4 LT PUSH2 0x1FDA JUMPI POP POP POP POP POP POP JUMP JUMPDEST DUP3 CALLDATALOAD PUSH1 0x1 PUSH1 0x1 PUSH1 0x40 SHL SUB DUP2 GT PUSH2 0x232 JUMPI DUP7 SWAP2 PUSH2 0x1FF9 DUP7 DUP5 SWAP4 DUP7 ADD PUSH2 0x1F34 JUMP JUMPDEST DUP2 MSTORE ADD SWAP3 ADD SWAP2 PUSH2 0x1FCB JUMP JUMPDEST DUP2 DUP2 LT PUSH2 0x200F JUMPI POP POP JUMP JUMPDEST PUSH1 0x0 DUP2 SSTORE PUSH1 0x1 ADD PUSH2 0x2004 JUMP JUMPDEST SWAP2 SWAP1 PUSH1 0x1F DUP2 GT PUSH2 0x202A JUMPI POP POP POP JUMP JUMPDEST PUSH2 0x2056 SWAP3 PUSH1 0x0 MSTORE PUSH1 0x20 PUSH1 0x0 KECCAK256 SWAP1 PUSH1 0x20 PUSH1 0x1F DUP5 ADD PUSH1 0x5 SHR DUP4 ADD SWAP4 LT PUSH2 0x2058 JUMPI JUMPDEST PUSH1 0x1F ADD PUSH1 0x5 SHR ADD SWAP1 PUSH2 0x2004 JUMP JUMPDEST JUMP JUMPDEST SWAP1 SWAP2 POP DUP2 SWAP1 PUSH2 0x2049 JUMP JUMPDEST SWAP2 SWAP1 SWAP2 DUP3 MLOAD PUSH1 0x1 PUSH1 0x1 PUSH1 0x40 SHL SUB DUP2 GT PUSH2 0xAB6 JUMPI PUSH2 0x2089 DUP2 PUSH2 0x2083 DUP5 SLOAD PUSH2 0x1D9B JUMP JUMPDEST DUP5 PUSH2 0x201B JUMP JUMPDEST PUSH1 0x20 DUP1 PUSH1 0x1F DUP4 GT PUSH1 0x1 EQ PUSH2 0x20C5 JUMPI POP DUP2 SWAP3 SWAP4 SWAP5 PUSH1 0x0 SWAP3 PUSH2 0x20BA JUMPI JUMPDEST POP POP DUP2 PUSH1 0x1 SHL SWAP2 PUSH1 0x0 NOT SWAP1 PUSH1 0x3 SHL SHR NOT AND OR SWAP1 SSTORE JUMP JUMPDEST ADD MLOAD SWAP1 POP CODESIZE DUP1 PUSH2 0x20A4 JUMP JUMPDEST SWAP1 PUSH1 0x1F NOT DUP4 AND SWAP6 DUP5 PUSH1 0x0 MSTORE DUP3 PUSH1 0x0 KECCAK256 SWAP3 PUSH1 0x0 SWAP1 JUMPDEST DUP9 DUP3 LT PUSH2 0x2111 JUMPI POP POP DUP4 PUSH1 0x1 SWAP6 SWAP7 SWAP8 LT PUSH2 0x20F8 JUMPI JUMPDEST POP POP POP DUP2 SHL ADD SWAP1 SSTORE JUMP JUMPDEST ADD MLOAD PUSH1 0x0 NOT PUSH1 0xF8 DUP5 PUSH1 0x3 SHL AND SHR NOT AND SWAP1 SSTORE CODESIZE DUP1 DUP1 PUSH2 0x20EE JUMP JUMPDEST DUP1 PUSH1 0x1 DUP6 SWAP7 DUP3 SWAP5 SWAP7 DUP7 ADD MLOAD DUP2 SSTORE ADD SWAP6 ADD SWAP4 ADD SWAP1 PUSH2 0x20D9 JUMP JUMPDEST PUSH1 0x8 SLOAD PUSH1 0x1 PUSH1 0x40 SHL DUP2 LT ISZERO PUSH2 0xAB6 JUMPI PUSH2 0x214B DUP2 PUSH1 0x1 PUSH2 0x2162 SWAP4 ADD PUSH1 0x8 SSTORE PUSH2 0x1D15 JUMP JUMPDEST DUP2 SWAP4 SWAP2 SLOAD SWAP1 PUSH1 0x3 SHL SWAP2 DUP3 SHL SWAP2 PUSH1 0x0 NOT SWAP1 SHL NOT AND OR SWAP1 JUMP JUMPDEST SWAP1 SSTORE JUMP JUMPDEST DUP1 SLOAD SWAP1 PUSH1 0x1 PUSH1 0x40 SHL DUP3 LT ISZERO PUSH2 0xAB6 JUMPI DUP2 PUSH2 0x214B SWAP2 PUSH1 0x1 PUSH2 0x2162 SWAP5 ADD DUP2 SSTORE PUSH2 0x1D83 JUMP JUMPDEST PUSH1 0x0 NOT DUP2 EQ PUSH2 0x21C JUMPI PUSH1 0x1 ADD SWAP1 JUMP JUMPDEST SWAP2 SWAP1 DUP2 LT ISZERO PUSH2 0x521 JUMPI PUSH1 0x5 SHL DUP2 ADD CALLDATALOAD SWAP1 PUSH1 0x1E NOT DUP2 CALLDATASIZE SUB ADD DUP3 SLT ISZERO PUSH2 0x232 JUMPI ADD SWAP1 DUP2 CALLDATALOAD SWAP2 PUSH1 0x1 PUSH1 0x1 PUSH1 0x40 SHL SUB DUP4 GT PUSH2 0x232 JUMPI PUSH1 0x20 ADD DUP3 CALLDATASIZE SUB DUP2 SGT PUSH2 0x232 JUMPI SWAP2 SWAP1 JUMP JUMPDEST SWAP1 DUP1 PUSH1 0x20 SWAP4 SWAP3 DUP2 DUP5 MSTORE DUP5 DUP5 ADD CALLDATACOPY PUSH1 0x0 DUP3 DUP3 ADD DUP5 ADD MSTORE PUSH1 0x1F ADD PUSH1 0x1F NOT AND ADD ADD SWAP1 JUMP JUMPDEST SWAP8 SWAP7 SWAP6 SWAP2 SWAP3 PUSH2 0x2237 SWAP5 PUSH2 0x221B PUSH2 0x2229 SWAP4 PUSH1 0x60 SWAP9 SWAP7 PUSH1 0x80 DUP14 MSTORE PUSH1 0x80 DUP14 ADD SWAP2 PUSH2 0x21D8 JUMP JUMPDEST SWAP2 DUP11 DUP4 SUB PUSH1 0x20 DUP13 ADD MSTORE PUSH2 0x21D8 JUMP JUMPDEST SWAP2 DUP8 DUP4 SUB PUSH1 0x40 DUP10 ADD MSTORE PUSH2 0x21D8 JUMP JUMPDEST SWAP4 ADD MSTORE JUMP JUMPDEST SWAP4 SWAP3 SWAP2 DUP1 PUSH1 0x40 DUP7 ADD PUSH1 0x40 DUP8 MSTORE MSTORE PUSH1 0x60 DUP6 ADD SWAP1 PUSH1 0x60 DUP2 PUSH1 0x5 SHL DUP8 ADD ADD SWAP2 DUP4 PUSH1 0x0 SWAP1 JUMPDEST DUP4 DUP3 LT PUSH2 0x2271 JUMPI POP POP POP POP PUSH1 0x20 SWAP2 POP SWAP4 ADD MSTORE JUMP JUMPDEST SWAP1 SWAP2 SWAP3 SWAP4 PUSH1 0x5F NOT DUP10 DUP3 SUB ADD DUP5 MSTORE DUP6 CALLDATALOAD PUSH1 0x1E NOT DUP4 CALLDATASIZE SUB ADD DUP2 SLT ISZERO PUSH2 0x232 JUMPI DUP3 ADD DUP1 CALLDATALOAD PUSH1 0x20 DUP1 SWAP3 ADD PUSH1 0x1 PUSH1 0x1 PUSH1 0x40 SHL SUB DUP3 GT PUSH2 0x232 JUMPI DUP2 CALLDATASIZE SUB DUP2 SGT PUSH2 0x232 JUMPI PUSH1 0x1 SWAP4 DUP4 SWAP3 PUSH2 0x22BC SWAP3 PUSH2 0x21D8 JUMP JUMPDEST SWAP8 ADD SWAP7 SWAP6 SWAP5 ADD SWAP3 ADD SWAP1 PUSH2 0x225D JUMP JUMPDEST PUSH1 0x2 PUSH1 0x1 SLOAD EQ PUSH2 0x22DB JUMPI PUSH1 0x2 PUSH1 0x1 SSTORE JUMP JUMPDEST PUSH1 0x40 MLOAD PUSH4 0x3EE5AEB5 PUSH1 0xE0 SHL DUP2 MSTORE PUSH1 0x4 SWAP1 REVERT JUMPDEST ISZERO PUSH2 0x22F4 JUMPI JUMP JUMPDEST PUSH1 0x40 MLOAD PUSH3 0x461BCD PUSH1 0xE5 SHL DUP2 MSTORE PUSH1 0x20 PUSH1 0x4 DUP3 ADD MSTORE PUSH1 0x19 PUSH1 0x24 DUP3 ADD MSTORE PUSH32 0x4D656D6F72792068617368206973206E6F742061637469766500000000000000 PUSH1 0x44 DUP3 ADD MSTORE PUSH1 0x64 SWAP1 REVERT JUMPDEST ISZERO PUSH2 0x2340 JUMPI JUMP JUMPDEST PUSH1 0x40 MLOAD PUSH3 0x461BCD PUSH1 0xE5 SHL DUP2 MSTORE PUSH1 0x20 PUSH1 0x4 DUP3 ADD MSTORE PUSH1 0x21 PUSH1 0x24 DUP3 ADD MSTORE PUSH32 0x4E6F7420746865206F776E6572206F662074686973206D656D6F727920686173 PUSH1 0x44 DUP3 ADD MSTORE PUSH1 0xD PUSH1 0xFB SHL PUSH1 0x64 DUP3 ADD MSTORE PUSH1 0x84 SWAP1 REVERT JUMPDEST SWAP2 SWAP1 DUP2 LT ISZERO PUSH2 0x521 JUMPI PUSH1 0x5 SHL ADD SWAP1 JUMP JUMPDEST SWAP2 SWAP1 DUP2 LT ISZERO PUSH2 0x521 JUMPI PUSH1 0x5 SHL DUP2 ADD CALLDATALOAD SWAP1 PUSH1 0x1E NOT DUP2 CALLDATASIZE SUB ADD DUP3 SLT ISZERO PUSH2 0x232 JUMPI ADD SWAP1 DUP2 CALLDATALOAD SWAP2 PUSH1 0x1 PUSH1 0x1 PUSH1 0x40 SHL SUB DUP4 GT PUSH2 0x232 JUMPI PUSH1 0x20 ADD DUP3 PUSH1 0x5 SHL CALLDATASIZE SUB DUP2 SGT PUSH2 0x232 JUMPI SWAP2 SWAP1 JUMP JUMPDEST PUSH1 0x9 SLOAD PUSH1 0x0 JUMPDEST DUP2 DUP2 LT PUSH2 0x241D JUMPI POP PUSH1 0x1 PUSH1 0x40 SHL DUP2 LT ISZERO PUSH2 0xAB6 JUMPI DUP1 PUSH1 0x1 PUSH2 0x240D SWAP3 ADD PUSH1 0x9 SSTORE PUSH2 0x1D4C JUMP JUMPDEST SWAP2 SWAP1 SWAP2 PUSH2 0x1871 JUMPI PUSH2 0x2056 SWAP2 PUSH2 0x2062 JUMP JUMPDEST PUSH2 0x4C5 PUSH2 0x2439 PUSH2 0x242C DUP4 PUSH2 0x1D4C JUMP JUMPDEST POP PUSH1 0x40 MLOAD SWAP3 DUP4 DUP1 SWAP3 PUSH2 0x1DD5 JUMP JUMPDEST DUP1 MLOAD PUSH1 0x20 DUP1 SWAP3 ADD KECCAK256 SWAP1 DUP5 MLOAD SWAP1 DUP6 ADD KECCAK256 EQ PUSH2 0x245B JUMPI PUSH2 0x2456 SWAP1 PUSH2 0x2188 JUMP JUMPDEST PUSH2 0x23E9 JUMP JUMPDEST POP POP POP JUMP INVALID LOG2 PUSH5 0x6970667358 0x22 SLT KECCAK256 DUP2 0xBE 0xC7 GASLIMIT SWAP4 PUSH5 0x31B480A9FB PUSH0 0xA6 0xB4 SLOAD 0xE9 0xD 0xAB CODECOPY PUSH30 0x75788CF01BFB9E4E71B3FE3E64736F6C6343000814003300000000000000 "},"methodIdentifiers":{"agentMemories(address,uint256)":"5730e4c8","allMemoryHashes(uint256)":"19abf3c7","allTags(uint256)":"30babdd4","batchCommitMemoryHashes(bytes32[],string[],string[],string[],uint256[],string[][])":"a6ce4fc5","commitMemoryHash(bytes32,string,string,string,uint256,string[])":"732ac8cc","contentTypeCount(string)":"d121bf0f","getAgentMemories(address)":"552338b3","getAllTags()":"7038f157","getMemoryHash(bytes32)":"077f9e19","getMemoryHashByIndex(uint256)":"440bc494","getMemoryHashByZGStorageId(string)":"91ff9a1c","getMemoryHashesByContentType(string)":"aaecbb35","getMemoryHashesByTag(string)":"14205822","getMemoryStats()":"fd098e1e","getTotalMemoryHashes()":"efbc4e96","isMemoryHashVerified(bytes32)":"82482d41","memoryHashes(bytes32)":"4b31f22c","owner()":"8da5cb5b","renounceOwnership()":"715018a6","revokeMemoryHash(bytes32)":"7afb8065","tagToHashes(string,uint256)":"f82e3dda","transferOwnership(address)":"f2fde38b","updateZGStorageId(bytes32,string)":"3ea60080","verifiedHashes(bytes32)":"374146e2","verifyMemoryHash(bytes32)":"233e42ae","zgStorageToHash(string)":"f7e38666"}}}}}